:100000000C94E2020C940A030C940A030C940A0365
:100010000C940A030C940A030C940A030C940A032C
:100020000C940A030C940A030C940A030C940A031C
:100030000C940A030C940A030C940A030C940A030C
:100040000C94C40E0C940A030C94F30D0C94CD0D77
:100050000C940A030C940A030C940A030C940A03EC
:100060000C940E0F0C940A0300000000003E5B4F3E
:100070005B3E3E6B4F6B3E1C3E7C3E1C183C7E3C08
:10008000181C577D571C1C5E7F5E1C00183C180016
:10009000FFE7C3E7FF0018241800FFE7DBE7FF30A6
:1000A000483A060E2629792926407F050507407F14
:1000B00005253F5A3CE73C5A7F3E1C1C08081C1C87
:1000C0003E7F14227F22145F5F005F5F06097F017D
:1000D0007F006689956A606060606094A2FFA29468
:1000E00008047E040810207E201008082A1C080836
:1000F0001C2A08081E101010100C1E0C1E0C303884
:100100003E3830060E3E0E06000000000000005F84
:1001100000000007000700147F147F14242A7F2AA0
:100120001223130864623649562050000807030062
:10013000001C2241000041221C002A1C7F1C2A08AE
:10014000083E080800807030000808080808000011
:1001500060600020100804023E5149453E00427F85
:10016000400072494949462141494D331814127FD4
:100170001027454545393C4A494931412111090774
:100180003649494936464949291E000014000000F5
:1001900040340000000814224114141414140041C7
:1001A00022140802015909063E415D594E7C121184
:1001B000127C7F494949363E414141227F414141BC
:1001C0003E7F494949417F090909013E4141517337
:1001D0007F0808087F00417F41002040413F017FA8
:1001E000081422417F404040407F021C027F7F0470
:1001F00008107F3E4141413E7F090909063E4151B9
:10020000215E7F09192946264949493203017F01A8
:10021000033F4040403F1F2040201F3F4038403FA9
:10022000631408146303047804036159494D4300BF
:100230007F4141410204081020004141417F0402F6
:10024000010204404040404000030708002054548D
:1002500078407F284444383844444428384444286B
:100260007F385454541800087E090218A4A49C78BE
:100270007F0804047800447D40002040403D007F1A
:100280001028440000417F40007C047804787C08FA
:100290000404783844444438FC18242418182424CE
:1002A00018FC7C08040408485454542404043F44B3
:1002B000243C4040207C1C2040201C3C4030403CE2
:1002C00044281028444C9090907C4464544C440042
:1002D00008364100000077000000413608000201A6
:1002E0000204023C2623263C1EA1A161123A404092
:1002F000207A38545455592155557941225454780F
:1003000042215554784020545579400C1E527212A7
:100310003955555559395454545939555454580030
:1003200000457C410002457D420001457C407D1234
:1003300011127DF0282528F07C5455450020545496
:100340007C547C0A097F4932494949323A44444441
:100350003A324A4848303A4141217A3A424020787C
:10036000009DA0A07D3D4242423D3D4040403D3C7D
:1003700024FF2424487E4943662B2FFC2F2BFF09A2
:1003800029F620C0887E0903205454794100004496
:100390007D413048484A32384040227A007A0A0A81
:1003A000727D0D19317D2629292F282629292926F4
:1003B00030484D4020380808080808080808382F39
:1003C00010C8ACBA2F102834FA00007B00000814C3
:1003D0002A142222142A14085500550055AA55AA99
:1003E00055AAFF55FF55FF000000FF00101010FF39
:1003F00000141414FF001010FF00FF1010F010F094
:10040000141414FC001414F700FF0000FF00FF1484
:1004100014F404FC141417101F10101F101F1414D0
:10042000141F00101010F0000000001F101010101A
:100430001F10101010F010000000FF10101010100E
:1004400010101010FF10000000FF140000FF00FF4C
:1004500000001F10170000FC04F4141417101714E8
:1004600014F404F40000FF00F7141414141414140A
:10047000F700F7141414171410101F101F1414147D
:10048000F4141010F010F000001F101F0000001FE7
:1004900014000000FC140000F010F01010FF10FF1A
:1004A000141414FF141010101F00000000F010FFAF
:1004B000FFFFFFFFF0F0F0F0F0FFFFFF0000000093
:1004C00000FFFF0F0F0F0F0F3844443844FC4A4A17
:1004D0004A347E02020606027E027E0263554941CC
:1004E000633844443C04407E201E2006027E020203
:1004F00099A5E7A5991C2A492A1C4C7201724C3017
:100500004A4D4D303048784830BC625A463D3E49ED
:100510004949007E0101017E2A2A2A2A2A44445F91
:10052000444440514A444040444A51400000FF0185
:1005300003E080FF000008086B6B08361236243693
:10054000060F090F060000181800000010100030F8
:1005500040FF0101001F01011E00191D1712003C80
:100560003C3C3C000000000000000000230026008E
:100570002900000000080002010000030407000039
:1005800000000000000000000000250028002B00F3
:1005900000000000240027002A00040404040404CE
:1005A0000404020202020202030303030303010222
:1005B00004081020408001020408102001020408F1
:1005C0001020801B11241FBECFEFD8E0DEBFCDBFAF
:1005D00025E0AAECB3E001C01D92AE3BB207E1F703
:1005E00013E0A0E0B1E0E0EEF2E402C005900D926D
:1005F000AA3CB107D9F712E0C2EED2E004C02197BD
:10060000FE010E94BB1EC13ED107C9F70E943315EF
:100610000C946E210C940000FC01538D448D252F09
:1006200030E0842F90E0821B930B541710F0CF968C
:10063000089501970895FC01918D828D981761F0BE
:10064000828DDF01A80FB11D5D968C91928D9F5F09
:100650009F73928F90E008958FEF9FEF0895FC01B4
:10066000918D828D981731F0828DE80FF11D858D67
:1006700090E008958FEF9FEF0895FC01918D228DFA
:10068000892F90E0805C9F4F821B91098F7399277F
:10069000089586E994E00E943D0321E0892B09F446
:1006A00020E0822F0895FC01848DDF01A80FB11D89
:1006B000A35ABF4F2C91848D90E001968F73992798
:1006C000848FA689B7892C93A089B1898C91806485
:1006D0008C93938D848D981306C00288F389E02D46
:1006E00080818F7D80830895EF92FF920F931F93F7
:1006F000CF93DF93EC0181E0888F9B8D8C8D9813D5
:1007000005C0E889F989808185FD24C0F62E0B8D0E
:1007100010E00F5F1F4F0F731127E02E8C8DE81232
:100720000CC00FB607FCFACFE889F989808185FFF4
:10073000F5CFCE010E945303F1CF8B8DFE01E80F60
:10074000F11DE35AFF4FF0820B8FEA89FB8980810C
:10075000806207C0EE89FF896083E889F98980811A
:100760008064808381E090E0DF91CF911F910F91B1
:10077000FF90EF900895CF93DF93EC01888D88234D
:10078000C9F0EA89FB89808185FD05C0A889B989FE
:100790008C9186FD0FC00FB607FCF5CF808185FFD9
:1007A000F2CFA889B9898C9185FFEDCFCE010E9447
:1007B0005303E7CFDF91CF91089580E090E0892B3C
:1007C00029F00E94490381110C94000008953FB75D
:1007D000F8948091160490911704A0911804B09198
:1007E000190426B5A89B05C02F3F19F00196A11D3D
:1007F000B11D3FBFBA2FA92F982F8827820F911DB7
:10080000A11DB11DBC01CD0142E0660F771F881FFD
:10081000991F4A95D1F708950F931F93CF93DF93B4
:10082000DC0155968C915597823071F0833009F137
:10083000813009F08CC01496ED91FC911597E41B62
:10084000F50BE21BF30B20C01496ED91FC9115976C
:10085000CF01861B970BBC01615071091696ED9173
:10086000FC911797CF01841B950BAC01421B530BD6
:100870006EC01696ED91FC911797CF01861B970BD2
:10088000BC0161507109FA0177FD1BC116968D916B
:100890009C911797681779070CF013C1F7FF04C0F4
:1008A0002E0F3F1FE0E0F0E014968D919C9115977C
:1008B000AF01420F531F841795071CF49C012E1B98
:1008C0003F0B121613060CF0FCC0CB0177FD079608
:1008D00043E0959587954A95E1F79695982F882757
:1008E00097958795E80FF91FE050FF4F67707727BE
:1008F00081E090E001C0880F6A95EAF7482F013047
:10090000110541F088F00230110509F0DAC02E0F10
:100910003F1F15C02E0F3F1FE217F30709F4D1C088
:100920008081842B8193F8CF80952E0F3F1FE21793
:10093000F30709F4C6C0908198239193F8CFE2178A
:10094000F30709F4BEC0808184278193F8CF77FD37
:10095000B8C014968D919C911597681779070CF083
:10096000B0C057FF04C0240F351F40E050E016967A
:100970008D919C911797FA01E20FF31F8E179F0735
:100980001CF49C01241B350B121613060CF099C0A5
:10099000A22F842F86958695869590E8899F600D75
:1009A000711D1124FB01E050FF4F4770A9F198E041
:1009B000941B492F50E0EA01C85FDC4F888129175A
:1009C00090F4421B51092FEF30E002C03595279576
:1009D0004A95E2F782230130110541F068F00230B8
:1009E000110589F06EC00130110519F42081822BA8
:1009F0000CC00130110520F480952081822305C0B0
:100A00000230110531F4208182278083A91708F470
:100A100058C0A91BE058FF4FA83048F1023011051B
:100A200059F4EF018A2F988190959883C058DF4F31
:100A300088508830C0F730C081E00130110509F0DE
:100A400080E08195EF019A2F8883C058DF4F98503E
:100A50009830D0F788EF8A0F86958695869590E82E
:100A6000899FE00DF11D1124E058FF4FA770AA23C4
:100A700041F1B0E0A050BD4F8C910130110529F03B
:100A800038F002301105D1F01CC09081892B18C0BC
:100A900080959081892314C088EF8A0F869586956A
:100AA000869590E8899FE00DF11D1124E058FF4FD5
:100AB000A77039F0B0E0A050BD4F8C91908189278C
:100AC0008083DF91CF911F910F9108950F931F9312
:100AD000CF93DF93DC01FB0155968C9155978230C3
:100AE00081F0833019F1813051F514968D919C91EC
:100AF0001597BC01641B750BAB0141505109BF0137
:100B000081C014966D917C911597CB018E1B9F0B24
:100B1000FC0116968D919C911797BC01641B750B77
:100B2000AB0141505109E21BF30B09C016966D91C0
:100B30007C9117976E1B7F0B621B730B63C057FD75
:100B40001CC116968D919C911797481759070CF068
:100B500014C1F7FF04C02E0F3F1FE0E0F0E0149631
:100B60008D919C911597BF01620F731F8617970790
:100B70001CF49C012E1B3F0B121613060CF0FDC03B
:100B8000CA0157FD079663E0959587956A95E1F749
:100B90009695982F882797958795E80FF91FE0502D
:100BA000FF4F4770552781E090E001C0880F4A95BC
:100BB000EAF7482F0130110541F088F002301105A5
:100BC00009F0DBC02E0F3F1F15C02E0F3F1FE2178D
:100BD000F30709F4D2C08081842B8193F8CF8095EC
:100BE0002E0F3F1FE217F30709F4C7C09081982327
:100BF0009193F8CFE217F30709F4BFC080818427EF
:100C00008193F8CF57FDB9C014968D919C9115979B
:100C1000481759070CF0B1C077FF04C0260F371FE3
:100C200060E070E016968D919C911797FB01E20FA2
:100C3000F31F8E179F071CF49C01261B370B1216FF
:100C400013060CF09AC0A22F862F8695869586955E
:100C500090E8899F400D511D1124FA01E050FF4F8B
:100C60006770A9F198E0961B492F50E0EA01C85F30
:100C7000DC4F8881291790F4421B51092FEF30E097
:100C800002C0359527954A95E2F782230130110578
:100C900041F068F00230110589F06FC00130110594
:100CA00019F42081822B0CC00130110520F48095AD
:100CB0002081822305C00230110531F42081822772
:100CC0008083A91708F459C0A91BE058FF4FA8302A
:100CD00048F10230110559F4EF018A2F988190955F
:100CE0009883C058DF4F88508830C0F731C081E00A
:100CF0000130110509F080E08195EF019A2F88837A
:100D0000C058DF4F98509830D0F788EF8A0F8695FB
:100D10008695869560E8869FE00DF11D1124E058C8
:100D2000FF4FA770AA2349F1B0E0A050BD4F8C91AE
:100D30000130110529F038F002301105D9F01DC03D
:100D40009081892B03C0809590818923808315C071
:100D500088EF8A0F86958695869570E8879FE00DC7
:100D6000F11D1124E058FF4FA77039F0B0E0A050FA
:100D7000BD4F8C9190818927E9CFDF91CF911F9151
:100D80000F910895FC0177FD9AC0808591856817C1
:100D900079070CF094C057FD92C08285938548175F
:100DA00059070CF08CC08589823009F07CC08481A1
:100DB0009581DC01A61BB70BBD01615071098681CD
:100DC0009781FC01E41BF50BAF01415051090AC0AA
:100DD000813041F484819581841B950BAB01BC016A
:100DE000615071092130310529F008F122303105B7
:100DF000E1F10895FA0157FD3796A3E0F595E795DF
:100E0000AA95E1F7F695FE2FEE27F795E7956E0F79
:100E10007F1FFB01E050FF4F4770552781E090E0B6
:100E200001C0880F4A95EAF79081892B3AC0FA01F0
:100E300057FD379623E0F595E7952A95E1F7F69566
:100E4000FE2FEE27F795E7956E0F7F1FFB01E05011
:100E5000FF4F4770552781E090E001C0880F4A9509
:100E6000EAF78095908189231CC0FA0157FD3796D7
:100E700083E0F595E7958A95E1F7F695FE2FEE2745
:100E8000F795E7956E0F7F1FFB01E050FF4F47700E
:100E9000552781E090E001C0880F4A95EAF79081DC
:100EA000892780830895833009F092CF86819781C6
:100EB000861B970BBA01AC014150510993CF08959D
:100EC0000895FC016370658B84819581268137814B
:100ED000613039F0633029F091878087338722872A
:100EE0000895318720879387828708952F923F92B4
:100EF0004F925F926F927F928F929F92AF92BF922A
:100F0000CF92DF92EF92FF920F931F93CF93DF93D5
:100F1000CDB7DEB76C970FB6F894DEBF0FBECDBF6E
:100F20009C8F8B8F5B011A011F830E833701C9824F
:100F3000DC0158964D915C9159974115510509F086
:100F4000E5C018968D919C911997681779070CF058
:100F5000CAC11A968D919C911B97281639060CF0E0
:100F6000C2C18C2C912CFB0136E0C39EE00DF11D1B
:100F70001124FB87EA871E161F060CF0B4C1C401BA
:100F800033E0880F991F3A95E1F79D878C87820D92
:100F9000931D181619060CF0A6C157968C91811155
:100FA00003C0203B08F02F5FAB8DBC8DED91FC9111
:100FB00011970284F385E02DCD012A8F09952A8DA2
:100FC000B5E02B9F90011124F5013596FF87EE8740
:100FD000BB82AA822501A9014A195B09598B488B5A
:100FE000C10108969B8B8A8BE889F989E40DF51D70
:100FF000E859FF4F9491988761013D822C82A88522
:10100000A0FF13C0AB8DBC8DED91FC91B981B130C7
:1010100031F40484F585E02D2E813F8116C00684CD
:10102000F785E02DEE80FF801AC0EE81FF816E16FD
:101030007F06F1F0AB8DBC8DED91FC91B981B130A3
:1010400051F40484F585E02D9301A601B2018B8D46
:101050009C8D09950DC00684F785E02D73018401F0
:1010600094014C815D816A817B818B8D9C8D09957A
:10107000E885E695E887FFEFCF1ADF0A2C813D81EE
:10108000280D391D3D832C834A895B89C416D506FA
:1010900009F0B5CF5FEF451A550A8A819B81880D0B
:1010A000991D9B838A83AE85BF854A165B0609F02E
:1010B0009BCFEE81FF816E167F0609F4F2C0EB8DA7
:1010C000FC8DA081B181F981F13079F4B5016B5FBC
:1010D0007F4F5096ED91FC915197830128E030E0CD
:1010E000A1018B8D9C8D0995DCC06A857B85681973
:1010F00079091E96ED91FC911F9773010C851D8552
:101100009401A1018B8D9C8D0995CBC0FA01349679
:101110009491329765917491291BCB01B7E02B9F75
:10112000800D911D1124FA01259134913B8B2A8B5E
:10113000FC01459154915B834A83FC013296C49033
:10114000319654915E87329614913196D49089816C
:10115000823058F0612E012E000C7708AD2D0D2C39
:10116000000CBB0BB987A88704C019861886612CB0
:10117000712CAB8DBC8DED91FC9111970284F385A0
:10118000E02DCD010995B9818B2E912C689CC00171
:10119000699C900D789C900D1124FC01EA0DFB1DBB
:1011A000FD87EC871C82712C612CE12F110FFF0B46
:1011B00095012E0F3F1F3B872A87AC0CB11CA50160
:1011C0004E0F5F1F5F8B4E8BC1018D0D911DD7FCA4
:1011D0009A95998F888F4E85641608F062C0862D87
:1011E00090E048855985480F591F489D9001499DB9
:1011F000300D589D300D1124D901A20DB31DB98BAE
:10120000A88BAA84BB844C845D84DC80BA85DB1AFD
:10121000E88DF98DE80FF91FFD8BEC8B8D2D8A0D74
:101220002E893F89A216B306B9F1877061F48A81CD
:101230009B810196EA89FB89AA81BB81EA0FFB1F8A
:1012400074909B838A8377FE20C0AB8DBC8DED911B
:10125000FC91B981B13061F40484F585E02D2E81D3
:101260003F814C895D89B5018B8D9C8D09950DC0A1
:101270000684F785E02DEE80FF8084019401488983
:101280005989B2018B8D9C8D0995770CEFEFAE1AC1
:10129000BE0A480C591CC2CF3C813C0D3C83639470
:1012A0009ACFAB8DBC8DED91FC9111970688F78993
:1012B000E02DCD016C960FB6F894DEBF0FBECDBF0A
:1012C000DF91CF911F910F91FF90EF90DF90CF9022
:1012D000BF90AF909F908F907F906F905F904F9056
:1012E0003F902F9009946C960FB6F894DEBF0FBE16
:1012F000CDBFDF91CF911F910F91FF90EF90DF90C5
:10130000CF90BF90AF909F908F907F906F905F90A5
:101310004F903F902F900895AF92BF92CF92EF924F
:10132000FF920F931F93CF93DF93EC01262F888DAD
:10133000998D009709F040C06A3059F41D861C86CB
:101340002C898E859F8538E0239F800D911D112467
:1013500041C06D3009F4AAC08E898823C1F03C8950
:101360008C859D8546E0349F800D911D1124488514
:101370005985481759075CF41D861C868E859F8504
:1013800048E0349F800D911D11249F878E87EA8845
:10139000FB88088919894E855F856C857D85CC8899
:1013A000CE010E9476072C898C859D8536E0239F8F
:1013B000800D911D112442C06A3079F41D861C866F
:1013C0002C89FC013696E4918E859F852E9F800D99
:1013D000911D11249F878E8769C06D3009F466C006
:1013E000FC0134963491631708F460C03196E4919F
:1013F000E61708F45BC0FC013296A590B490462F26
:1014000050E0431B510937E0349FB001359F700D08
:101410001124A60EB71EF501329634913196E4914F
:10142000332311F0E1110DC0F5013496E4912C89BC
:101430008C859D85E29F800D911D11249D878C8751
:1014400035C0F501359644915E89552311F16C89BB
:10145000E32FF0E0E40FF11D47FDFA956E9FD001F8
:101460006F9FB00D11244C855D854A0F5B1FE88589
:10147000F985E417F5076CF41D861C86FC01369689
:10148000E4918E859F856E9F800D911D11249F870D
:101490008E87EA88FB88088919894E855F856C8567
:1014A0007D85CC88CE010E947607BECF81E090E09A
:1014B000DF91CF911F910F91FF90EF90CF90BF9050
:1014C000AF9008956F927F928F929F92AF92BF924A
:1014D000CF92DF92EF92FF920F931F93CF93DF9300
:1014E000EC014B015A0169013801E881F98102845C
:1014F000F385E02D0995E881F9810288F389E02DD3
:1015000087019601A501B401CE010995E881F98111
:10151000A501460D571D415051090288F389E02D60
:101520009601B401CE010995E881F9810088F1891D
:10153000E02D9301A501B401CE010995E881F9815F
:10154000C80CD91CB601615071090088F189E02DE1
:101550009301A501CE010995E881F9810688F789F3
:10156000E02DCE01DF91CF911F910F91FF90EF9071
:10157000DF90CF90BF90AF909F908F907F906F90B3
:101580000994CF92DF92EF92FF920F931F93CF9324
:10159000DF9300D000D000D0CDB7DEB76C01DC0106
:1015A000ED91FC916217730789F4041715072CF469
:1015B000942F852FA801092F182F041B150B9801B4
:1015C0002F5F3F4F048CF58DE02D12C0401751075F
:1015D00009F5261737072CF4962F872FB901292FE5
:1015E000382F261B370B2F5F3F4F068CF78DE02DD2
:1015F0008701C601099526960FB6F894DEBF0FBE87
:10160000CDBFDF91CF911F910F91FF90EF90DF90B1
:10161000CF9008950284F385E02D2D833E834B8384
:101620005C8369837A830995D601ED91FC910488E6
:10163000F589E02D2D813E814B815C8169817A8124
:10164000C6010995D601ED91FC910688F789E02D38
:10165000C60126960FB6F894DEBF0FBECDBFDF9150
:10166000CF911F910F91FF90EF90DF90CF90099451
:10167000EF92FF920F931F93DC01ED91FC91119774
:101680001A960D911C911B9718962D913C911997C4
:1016900000A0F1A1E02D7B0140E050E060E070E0AF
:1016A00009951F910F91FF90EF9008954F925F92CF
:1016B0006F927F928F929F92AF92BF92CF92DF9262
:1016C000EF92FF920F931F93CF93DF9300D0CDB78C
:1016D000DEB76C015A0139014801DC01ED91FC9142
:1016E0000284F385E02D69837A8309956981462E0A
:1016F0007A81572E640C751CD601ED91FC9146142D
:1017000057046CF40088F189E02D87019401A5014C
:10171000B201C6010995BFEF4B1A5B0AEDCF0688EF
:10172000F789E02DC6010F900F90DF91CF911F91A7
:101730000F91FF90EF90DF90CF90BF90AF909F9070
:101740008F907F906F905F904F900994AF92BF926F
:10175000CF92DF92EF92FF920F931F93CF93DF937D
:1017600000D000D0CDB7DEB75C016901DC01ED919E
:10177000FC910284F385E02D4B835C8369837A833B
:101780000995D501ED91FC9169817A819B012C0D20
:101790003D1D215031090488F589E02D78014B81E8
:1017A0005C818A01C5010995D501ED91FC910688FE
:1017B000F789E02DC5010F900F900F900F90DF91EA
:1017C000CF911F910F91FF90EF90DF90CF90BF903E
:1017D000AF900994AF92BF92CF92DF92EF92FF92B7
:1017E0000F931F93CF93DF9300D000D0CDB7DEB718
:1017F0005C016901DC01ED91FC910284F385E02D2F
:101800004B835C8369837A830995D501ED91FC91C3
:101810004B815C81C40ED51EB1E0CB1AD10804887F
:10182000F589E02D7801860169817A819B01C501E6
:101830000995D501ED91FC910688F789E02DC50148
:101840000F900F900F900F90DF91CF911F910F91FC
:10185000FF90EF90DF90CF90BF90AF9009940895E4
:10186000EF92FF920F931F93DC01ED91FC9100A08A
:10187000F1A1E02D09951F910F91FF90EF90089530
:101880000F931F93DC01ED91FC91068CF78DE02DF9
:1018900009951F910F9108950F931F93DC01ED910E
:1018A000FC91048CF58DE02D09951F910F91089501
:1018B000DC01ED91FC910084F185E02D09940895FF
:1018C0002F923F924F925F926F927F928F929F9250
:1018D000AF92BF92CF92DF92EF92FF920F931F933E
:1018E000CF93DF9300D01F92CDB7DEB74C017B833F
:1018F0006A836A01590117019801241B350B37FFD0
:1019000003C0319521953109C5014A815B81841B52
:10191000950B97FF03C091958195910951E05983EB
:101920008217930714F019820BC09A2D8B2D580142
:10193000092F182F9A818B81DB82CA82C92ED82E5B
:101940008A819B81A816B9065CF49C2D8D2D6801B7
:10195000092F182F9A818B81BB82AA82A92EB82EBB
:101960002501AA81BB814A1A5B0A38016C187D08DF
:1019700077FE03C0719461947108720157FE03C031
:10198000BFEFEB1AFB0AF594E794C016D1061CF0E2
:101990000FEF1FEF1FC001E010E01CC0D401ED915C
:1019A000FC91B9810484F585E02D9101BB23C1F040
:1019B0004A815B81B601C4010995E618F708F7FE74
:1019C00004C0C00ED11EE40CF51CEA81FB813196E7
:1019D000FB83EA834A815B81A416B506FCF604C04A
:1019E000A6016A817B81E7CF0F900F900F90DF9166
:1019F000CF911F910F91FF90EF90DF90CF90BF900C
:101A0000AF909F908F907F906F905F904F903F909E
:101A10002F90089585ED8093BC008091BC0084FDDB
:101A2000FCCF1092950408954091EC03262F30E0EE
:101A3000240F311D21323105DCF42091950424302E
:101A4000C9F4FC0180E090E0861758F43091EC0373
:101A50002191DC01A653BC4FA30FB11D2C9301961D
:101A6000F3CF8091EC03680F6093EC0380E008955E
:101A700081E0089582E008950895E0914A048091FC
:101A80004904E81730F4F0E0E65EFB4F808190E017
:101A900008958FEF9FEF089590914A048091490433
:101AA000981750F4E92FF0E0E65EFB4F208130E01C
:101AB0009F5F90934A0402C02FEF3FEFC901089542
:101AC0008091490490E020914A04821B9109089575
:101AD000CF92DF92EF92FF920F931F93CF93DF93FA
:101AE0007C01262F972F8A0180914B04882391F047
:101AF000C62FD72F6E01C40ED51ECC15DD0571F093
:101B00006991D701ED91FC910190F081E02DC70121
:101B10000995F3CF642F822F0E94140DC801DF9125
:101B2000CF911F910F91FF90EF90DF90CF9008958C
:101B3000CF93DF931F92CDB7DEB7698320914B041B
:101B40002223D1F020916E04203240F021E030E0D9
:101B5000FC013383228380E090E015C080914C0427
:101B6000E82FF0E0E35BFB4F998190838F5F8093D8
:101B70004C0480936E0405C061E0CE0101960E9482
:101B8000140D81E090E00F90DF91CF9108950895BA
:101B900080E090E008950E94C11E1F920F920FB640
:101BA0000F9211242F933F934F935F936F937F93E3
:101BB0008F939F93AF93BF93EF93FF9386E994E046
:101BC0000E945303FF91EF91BF91AF919F918F912D
:101BD0007F916F915F914F913F912F910F900FBE29
:101BE0000F901F9018951F920F920FB60F9211240D
:101BF0002F938F939F93EF93FF93E091A604F0911F
:101C0000A7048081E091AC04F091AD0482FD12C084
:101C100090818091AF048F5F8F732091B004821701
:101C200051F0E091AF04F0E0EA56FB4F958F8093BE
:101C3000AF0401C08081FF91EF919F918F912F910F
:101C40000F900FBE0F901F901895833081F028F4ED
:101C5000813099F08230A1F008958730A9F0883062
:101C6000B9F08430D1F4809180008F7D03C08091E1
:101C700080008F7780938000089584B58F7702C0AD
:101C800084B58F7D84BD08958091B0008F7703C0A7
:101C90008091B0008F7D8093B00008951F93CF9303
:101CA000DF93282F30E0F901EE58FA4F8491F901C3
:101CB000E255FA4FD491F901E656FA4FC491CC237C
:101CC000C9F0162F81110E94250EEC2FF0E0EE0FC7
:101CD000FF1FEA57FA4FA591B4918FB7F8941111ED
:101CE00005C09C91ED2FE095E92302C0EC91ED2B0E
:101CF000EC938FBFDF91CF911F9108958F929F92A8
:101D0000AF92BF92CF92DF92EF92FF926B017C0174
:101D10000E94E7034B015C01C114D104E104F1040A
:101D2000F1F00E94E703DC01CB0188199909AA09A7
:101D3000BB09883E9340A105B10570F321E0C21AAA
:101D4000D108E108F10888EE880E83E0981EA11CF6
:101D5000B11CC114D104E104F10419F7DDCFFF90E7
:101D6000EF90DF90CF90BF90AF909F908F900895AD
:101D70002FB7F894609112047091130480911404A9
:101D8000909115042FBF08951F920F920FB60F92D6
:101D900011242F933F938F939F93AF93BF93809181
:101DA000120490911304A0911404B0911504309181
:101DB000110423E0230F2D3720F40196A11DB11D3E
:101DC00005C026E8230F0296A11DB11D2093110422
:101DD0008093120490931304A0931404B0931504F9
:101DE0008091160490911704A0911804B0911904E1
:101DF0000196A11DB11D8093160490931704A09322
:101E00001804B0931904BF91AF919F918F913F91A6
:101E10002F910F900FBE0F901F9018951F920F9249
:101E20000FB60F9211242F933F934F935F936F93AD
:101E30007F938F939F93AF93BF93EF93FF93809183
:101E4000B900887F803609F49CC068F5883209F4AF
:101E50005BC090F4803109F454C038F4882309F44D
:101E6000F6C0883009F44DC0F6C0883109F44CC082
:101E7000803209F45DC0EFC0803409F468C048F4D2
:101E8000803309F455C0883309F0E5C0809393048A
:101E9000D8C0803509F44FC0883509F45DC0883456
:101EA00009F0D9C0D6C0883909F4C7C0A8F488376A
:101EB00009F467C038F4883609F463C0803709F440
:101EC00060C0C9C0883809F4B8C0803909F45FC05F
:101ED000803809F0C0C05BC0803B09F486C038F48C
:101EE000803A09F466C0883A09F47FC0B4C0803CE7
:101EF00009F4A7C0883C09F4A4C0883B09F48AC04F
:101F0000AAC08091700410C09091920480919104B5
:101F1000981770F5E091920481E08E0F80939204FF
:101F2000F0E0EF58FB4F80818093BB0085EC86C0CA
:101F3000809393048EC0E091920481E08E0F809391
:101F400092048091BB00F0E0EF58FB4F80839091AA
:101F50009204809191046EC0E091920481E08E0F12
:101F6000809392048091BB00F0E0EF58FB4F808398
:101F70008091940481116DC081E080936F0484EAA4
:101F800061C083E08093950410921004CFCF8091BC
:101F90001004803208F051C0E091100481E08E0FEF
:101FA000809310048091BB00F0E0E051FC4F8083EF
:101FB000BDCF85EC8093BC001092950480911004F5
:101FC000803230F4E0911004F0E0E051FC4F1082D8
:101FD0006091100470E0E091EE03F091EF0380EF68
:101FE00093E009951092100436C084E08093950424
:101FF0001092ED031092EC03E091EA03F091EB03F1
:1020000009958091EC03811105C081E08093EC0378
:102010001092CA03E091ED0381E08E0F8093ED03EF
:10202000F0E0E653FC4F80818093BB009091ED037C
:102030008091EC03981708F479CF85E88093BC0071
:102040000AC085EC8093BC001092950404C01092E5
:1020500093040E940A0DFF91EF91BF91AF919F9160
:102060008F917F916F915F914F913F912F910F9041
:102070000FBE0F901F901895909195049111FCCF71
:1020800032E030939504209394042FEF209393042F
:102090001092920440939104FB0161E774E0DB012C
:1020A0002A2F261B241718F421912D93F9CF109273
:1020B000700420917004880F822B809370048091AB
:1020C0006F04813061F410926F04809170048093EA
:1020D000BB008091BC0083FDF8CF85EC01C085EE8C
:1020E0008093BC00809195048230E1F38091930449
:1020F0008F3F69F080919304803231F08091930496
:10210000803321F094E003C092E001C093E0892F76
:1021100008959091B105992339F08EBD00000DB45A
:1021200007FEFDCF8EB5089528E030E040E8E0914D
:10213000B405F091B50550819091BB05909595231C
:102140009083E091B205F091B3059091BA05542FB8
:10215000582319F05081952B03C0508190959523F9
:102160009083E091B405F091B50550819091BB0545
:10217000952B9083469521503109C9F60895CF9249
:10218000DF92EF92FF920F931F93CF93DF936C0137
:102190007A018B01C0E0D0E0CE15DF0589F0D801CF
:1021A0006D918D01D601ED91FC910190F081E02DB2
:1021B000C6010995892B11F47E0102C02196ECCF4E
:1021C000C701DF91CF911F910F91FF90EF90DF90AA
:1021D000CF900895E6E9F4E0A089B18982E08C937C
:1021E000A485B5851C92A685B7858FEC8C93108E3F
:1021F000A489B58986E08C93A289B3898C9180618A
:102200008C93A289B3898C9188608C93A289B389BD
:102210008C9180688C930288F389E02D80818F7D7A
:10222000808308958F929F92AF92BF92CF92DF9258
:10223000EF92FF926B017C010E94B80E4B015C0192
:10224000C60ED71EE81EF91E0E94B80E6815790545
:102250008A059B0528F0C616D706E806F906A0F7FA
:10226000FF90EF90DF90CF90BF90AF909F908F90B6
:102270000895282F40916E0480916D04413228F416
:102280006DE474E00E943C1001C081E010924C04A7
:1022900010926E0410924B040895682F8CE795E01D
:1022A0000C94980DCF93C82F8091AC058F3F59F1B6
:1022B000E091B605F091B70580819091BC05982B0F
:1022C0009083E091B805F091B90520819091BD050A
:1022D000909592239083E091B605F091B705208107
:1022E0009091BC059095922390838C2F0E94891029
:1022F000E091B605F091B70590818091BC05892BDE
:102300008083CF9108958091AA0591E090934B042A
:1023100080936D0410924C0410926E0460E08CE780
:1023200095E00E94980D6C2F8CE795E00E94980D27
:1023300081E0CF910C943911EF92FF920F931F938C
:10234000CF93DF9381E20E94521180E00E945211EC
:102350008FE70E94521182E20E94521180E00E9497
:10236000521183E00E9452118091AC058F3F79F1A8
:10237000E091B605F091B70590818091BC05892B5D
:102380008083E091B805F091B90590818091BD05F9
:10239000892B8083E091B605F091B70590818091FB
:1023A000BC05809589238083C0E0D1E089910E949B
:1023B000891083E0C030D807C9F7E091B605F091E5
:1023C000B70590818091BC05892B808330C0F09047
:1023D000B8008CE08093B800C0E0D1E0EE24E39434
:1023E0008091AA05E0924B0480936D0410924C04F6
:1023F00010926E0480E490E00E944D1100E010E025
:10240000FE01E00FF11F60818CE795E00E94980DBE
:102410000F5F1F4F0031110599F781E00E943911BC
:10242000609683E0C030D807D9F6F092B800DF910B
:10243000CF911F910F91FF90EF90089590E0FC01D4
:10244000E255FA4F2491FC01E656FA4F8491882315
:1024500099F090E0880F991FFC01E057FA4FA59181
:10246000B491FC01EA57FA4F859194918FB7F89493
:10247000EC91E22BEC938FBF089510924A041092D6
:10248000490410924C0410926E041092950481E05D
:102490008093940410926F0461E082E10E944E0EDA
:1024A00061E083E10E944E0EE9EBF0E080818E7FD7
:1024B000808380818D7F808388E48093B80085E469
:1024C0008093BC0008952F923F924F925F926F923B
:1024D0007F928F929F92AF92BF92CF92DF92EF92B4
:1024E000FF920F931F93CF93DF9300D000D0CDB70F
:1024F000DEB78C017B015C834B8381E090E05C0163
:10250000A41AB50ACA019195819591091C01220C62
:10251000331C460F571F21E030E0B80180E995E0F9
:102520000E94580CA7012B813C81421B530B21E0D8
:1025300030E0B80180E995E00E94580C6B817C8105
:10254000600F711F21E030E0A70180E995E00E9453
:10255000580CB8018B819C81681B790B21E030E01D
:10256000A70180E995E00E94580CC12CD12CE1E034
:10257000F0E0FA83E9832B813C81C216D3060CF08C
:1025800076C0B7FC0BC02B813C81215031093C83C4
:102590002B8332E0230E311CA20CB31C8FEFC81A20
:1025A000D80AE981FA813296FA83E983AE0EBF1E1A
:1025B0003601600E711E21E030E08B809C808E0C15
:1025C0009F1CA401B30180E995E00E94580C2801EA
:1025D0004C185D0821E030E0A401B20180E995E0EB
:1025E0000E94580C21E030E047018B819C81881AC1
:1025F000990AA401B30180E995E00E94580C21E0FA
:1026000030E0A401B20180E995E00E94580C460137
:102610008E0C9F1C21E030E0A4016B807C80600E5A
:10262000711EB30180E995E00E94580C21E030E072
:10263000A4012801EB81FC814E1A5F0AB20180E9F6
:1026400095E00E94580C47018C189D0821E030E06D
:10265000A401B30180E995E00E94580C21E030E02C
:10266000A401B20180E995E00E94580C84CF0F903C
:102670000F900F900F90DF91CF911F910F91FF90CE
:10268000EF90DF90CF90BF90AF909F908F907F9012
:102690006F905F904F903F902F9008956115710556
:1026A00079F0FB0101900020E9F73197AF01461B5B
:1026B000570BDC01ED91FC910280F381E02D099430
:1026C00080E090E008954F925F926F927F92EF9238
:1026D000FF920F931F93CF93DF93CDB7DEB7A197F0
:1026E0000FB6F894DEBF0FBECDBF7C01FA01CB015F
:1026F00019A2223008F42AE08E010F5D1F4F422EEE
:10270000512C612C712CBF01A30192010E941B1D51
:10271000F901CA01015011096A3014F4605D01C069
:10272000695CD8016C93232B242B252B61F7B8010E
:10273000C7010E944E13A1960FB6F894DEBF0FBEDC
:10274000CDBFDF91CF911F910F91FF90EF907F90C0
:102750006F905F904F9008950C944E13CF92DF923C
:10276000EF92FF92CF93DF931F92CDB7DEB719821E
:1027700088E0C82ED12CE12CF12C21E040E0BE01F4
:102780006F5F7F4F8C2D0E943C10811114C02AE096
:10279000B701A60180917605909177050E94631399
:1027A0006DE873E080917605909177050E94AC13F7
:1027B00081E0809339058FEFC81AD80AE80AF80A31
:1027C00087E7C816D104E104F104B9F60F90DF9150
:1027D000CF91FF90EF90DF90CF9008952F923F928E
:1027E0004F925F926F927F928F929F92AF92BF9221
:1027F000CF92DF92EF92FF920F931F93CF93DF93CD
:10280000CDB7DEB728970FB6F894DEBF0FBECDBFA9
:102810004B015C017A01390120E03CE34CE156ECCC
:102820000E94F71B9701295F3F4F38872F83811143
:1028300035C081E090E09093A3058093A20590932A
:10284000A1058093A00582E08093A40584E090E038
:1028500090939D0580939C05F0929F05E0929E05C4
:1028600060EC73E080E995E00E94AC1381E0809316
:10287000A4051092A60580E190E090939D058093B9
:102880009C058F81988590939F0580939E0562ECAF
:1028900073E080E995E00E94AC13CCC0C501B4019F
:1028A0000E94531E1B012C018E010C5F1F4F9AE0EA
:1028B000291631042CF43F922F9285EC93E004C04A
:1028C0003F922F9286EC93E09F938F931F930F93E9
:1028D0000E94CD1E0F900F900F900F900F900F90B1
:1028E000B101330C880B990B0E94FE1B9B01AC01BC
:1028F000C501B4010E94741D20E030E040E251E4C3
:102900000E945D1C0E94531E7F936F9386EC93E0A0
:102910009F938F939E012F5F3F4F59013F932F93BA
:102920000E94CD1E81E090E09093A3058093A205C4
:102930009093A1058093A00582E08093A4058FEF7A
:102940009FEF90939D0580939C05F0929F05E092E8
:102950009E05B80180E995E00E94AC13B701615073
:10296000710942E050E089E190E00E946312470162
:102970003EE0830E911C67018DE0C80ED11C01E082
:1029800010E023E030E0A60167E170E080E995E027
:102990000E944C0C21E030E0A40168E170E080E985
:1029A00095E00E944C0C23E030E0A60167E170E066
:1029B00080E995E00E944C0C21E030E0A40166E142
:1029C00070E080E995E00E944C0C23E030E0A60125
:1029D00067E170E080E995E00E944C0C81E0809313
:1029E000A4051092A6058BE190E090939D0580933D
:1029F0009C052F81388530939F0520939E05B50156
:102A000080E995E00E94AC1310929D0510929C0500
:102A100034E1E30EF11CF0929F05E0929E05B301B4
:102A200080E995E00E94AC130F900F900F900F90EB
:102A30000F900F9028960FB6F894DEBF0FBECDBF53
:102A4000DF91CF911F910F91FF90EF90DF90CF908A
:102A5000BF90AF909F908F907F906F905F904F90BE
:102A60003F902F900895CF93DF93CDB7DEB729978E
:102A70000FB6F894DEBF0FBECDBF789484B58260E8
:102A800084BD84B5816084BD85B5826085BD85B512
:102A9000816085BD80916E00816080936E00109290
:102AA000810080918100826080938100809181000B
:102AB000816080938100809180008160809380009C
:102AC0008091B10084608093B1008091B0008160FA
:102AD0008093B00080917A00846080937A00809126
:102AE0007A00826080937A0080917A00816080937E
:102AF0007A0080917A00806880937A001092C100F9
:102B0000109278051092790510927A0510927B0543
:102B1000109235051092360510923705109238053F
:102B200068EB7BE080E090E00E94121186E994E07F
:102B300090937705809376050E94EA100E94B80E64
:102B4000609335057093360580933705909338056B
:102B500060E673E080917605909177050E94AC1352
:102B60006AE070E080E090E00E94121181E08093C2
:102B70004A050E943D120E94B80E00913505109141
:102B800036052091370530913805DC01CB01801BDB
:102B9000910BA20BB30B82339105A105B10570F423
:102BA00042E350E060E070E06A017B01C81AD90A94
:102BB000EA0AFB0AC701B6010E9412110E94B80E70
:102BC00060933505709336058093370590933805EB
:102BD00062E773E080917605909177050E94AC13CF
:102BE00080913905811102C00E94AE1369E773E03C
:102BF00080917605909177050E94AC1369E773E0A8
:102C000080917605909177050E94AC1369E773E097
:102C100080917605909177050E94AC1369E773E087
:102C200080917605909177050E94AC136BE773E075
:102C300080917605909177050E94AC136AE070E070
:102C400080E090E00E9412110E94EA100E943D1262
:102C500082E08093AB058CE38093AA058091AC055C
:102C60008F3F09F4B6C08091AE050E941E1280917C
:102C7000B0050E941E128091B005082E000C990B21
:102C8000FC01E656FA4FE491F0E0EE0FFF1FEA5721
:102C9000FA4F259134913093B7052093B605FC0186
:102CA000E255FA4FE491E093BC058091AE05082E01
:102CB000000C990BFC01E656FA4FE491F0E0EE0FA0
:102CC000FF1FEA57FA4F259134913093B9052093AD
:102CD000B805FC01E255FA4FE491E093BD058091FF
:102CE000B10581113CC08091AC050E941E128091FB
:102CF000AD050E941E128091AD05082E000C990BA7
:102D0000FC01E656FA4FE491F0E0EE0FFF1FEA57A0
:102D1000FA4F259134913093B5052093B405FC0109
:102D2000E255FA4FE491E093BB058091AC05082E83
:102D3000000C990BFC01E656FA4FE491F0E0EE0F1F
:102D4000FF1FEA57FA4F259134913093B305209332
:102D5000B205FC01E255FA4FE491E093BA05809187
:102D6000B105882309F437C01FB7F89480913A045D
:102D7000811124C0E4EAF5E08491E8EBF5E0949158
:102D8000E82FF0E0EE0FFF1FE057FA4FA591B49146
:102D9000EC91E92321F461E08AE00E944E0E8AE082
:102DA0000E941E128CB580618CBD8CB580648CBD78
:102DB0008DE00E941E128BE00E941E1280913A0448
:102DC0008F5F80933A041FBF80E58CBD81E08DBD8D
:102DD00002C00E943D128091AF0587FD1DC00E9478
:102DE0001E1261E08091AF050E944E0E61E070E01E
:102DF00080E090E00E947E0E60E08091AF050E942E
:102E00004E0E6AE070E080E090E00E947E0E61E08D
:102E10008091AF050E944E0E8EEA0E94521185ED00
:102E20000E94521180E80E94521188EA0E945211B9
:102E30008FE10E94521183ED0E94521180E00E94A6
:102E4000521180E40E9452118DE80E94521184E1D7
:102E50000E94521180E20E94521180E00E945211A1
:102E600081EA0E94521188EC0E9452118AED0E9460
:102E7000521182E00E94521181E80E9452118FE8A3
:102E80000E94521189ED0E94521181EF0E9452114D
:102E90008BED0E94521180E40E94521184EA0E943C
:102EA000521186EA0E9452118EE20E9452118FEA5C
:102EB0000E9452118091AB05813011F01FEC01C0CE
:102EC0001FE981E80E945211812F0E94521181E86E
:102ED0000E9452118AE80E9452110E949C1164E6DD
:102EE00070E080E090E00E947E0E80E092E0E0E002
:102EF000F1E0DF018C011D9201501040E1F70E94CA
:102F0000B80E672B682B692B41F40E94B80E623013
:102F100071058105910508F40EC10E94B80E6093F9
:102F20003F047093400480934104909342040091C5
:102F30003B0410913C0420913D0430913E04601705
:102F400071078207930740F460933B0470933C043D
:102F500080933D0490933E0400913B0410913C0407
:102F600020913D0430913E046B017C01C01AD10ACE
:102F7000E20AF30A970186010A3F1105210531058E
:102F800008F4D9C060933B0470933C0480933D04E3
:102F900090933E0484EF91E0A0E0B0E0809342057E
:102FA00090934305A0934405B093450510924605C0
:102FB00010924705109248051092490580913A05F4
:102FC00090913B05A0913C05B0913D0580933E0555
:102FD00090933F05A0934005B09341050E94B80E21
:102FE00060933A0570933B0580933C0590933D05B3
:102FF0000E94B80E609335057093360580933705AF
:10300000909338050E94B80E6B017C0164E873E070
:1030100080917605909177050E94AC132AE041E0FB
:1030200050E060E070E080917605909177050E9415
:1030300063136BE873E080917605909177050E94A9
:10304000AC132AE0B701A60180917605909177052F
:103050000E9463136DE873E0809176059091770587
:103060000E94AC1380913A0590913B05A0913C05DC
:10307000B0913D05B701A601481B590B6A0B7B0BAC
:103080002AE080917605909177050E9463136DE8A0
:1030900073E080917605909177050E94AC13409182
:1030A0003A0550913B0560913C0570913D0580913A
:1030B0003E0590913F05A0914005B0914105481B08
:1030C000590B6A0B7B0B2AE080917605909177056E
:1030D0000E94631369E773E080917605909177050C
:1030E0000E94AC130E94B80EAB01BC012AE0809193
:1030F0007605909177050E946313009176051091F3
:1031000077056FE873E0C8010E944E1361E873E031
:10311000C8010E944E1365E070E080E090E00E94DC
:1031200012110E94B80E60933A0570933B0580938C
:103130003C0590933D05E7EF8E2E99249A94AA249E
:10314000A394B12C8E010F5F1F4F1E0129E0220EA8
:10315000311CA6E0CA2EC00EC9860E94B80EC090CF
:103160004504D0904604E0904704F0904804DC0108
:10317000CB018C199D09AE09BF0986399105A105BE
:10318000B10508F45CC00E94B80E609345047093CA
:103190004604809347049093480461E070E080E027
:1031A00090E00E9412110E94B80E60933505709352
:1031B0003605809337059093380562E773E0809178
:1031C0007605909177050E94AC13809139058111A5
:1031D00002C00E94AE1361E070E080E090E00E94C7
:1031E000121169E773E080917605909177050E944E
:1031F000AC1369E773E080917605909177050E94A2
:10320000AC1369E773E080917605909177050E9491
:10321000AC1369E773E080917605909177050E9481
:10322000AC136BE773E080917605909177050E946F
:10323000AC1361E070E080E090E00E94121180E445
:1032400080937C0080917A00806480937A008091E2
:103250007A0086FDFCCF809178002091790090E083
:10326000922B90934404809343048830910594F00A
:10327000B4010E94931E67577F4F072E000C880BE6
:10328000990B0E94FE1B2DEC3CEC4CEC5DE30E9484
:103290005D1C04C060E07CE38CE196ECB092A30579
:1032A000A092A205B092A105A092A005A0E0B1E075
:1032B000E0E0F2E01D923197E9F726E933E043E0E0
:1032C00050E00E94EE13F8011192E215F305E1F7C8
:1032D000EE24E394E0924B047CE5F72EF0926D042B
:1032E00010924C0410926E0481E00E943911E09219
:1032F0004B04F0926D0410924C0410926E0483E023
:1033000090E00E944D1180E090E00E944D1184E019
:1033100090E00E944D1181E00E9439118111B1C0ED
:103320008BEF98E10197F1F7809195048111FCCF23
:1033300081E080939504809394049FEF909393048D
:103340001092920497E0909391048093700480917E
:103350007004886B8093700480916F04813061F4F5
:1033600010926F04809170048093BB008091BC0028
:1033700083FDF8CF85EC01C085EE8093BC00809181
:1033800095048130E1F380919204883018F48091A3
:10339000920401C088E0A1E7B4E02AE134E0F90139
:1033A0009E2F921B981718F49D919193F9CF10922C
:1033B0004A048093490478018CE795E00E944C0D03
:1033C000D7018D937D01A215B305B1F7288530E0B3
:1033D000322F22278F81280F311DF8018FEF9FEFA9
:1033E000C984CE1691F04191842748E0BC017695BE
:1033F000679580FF06C0CB01B1E08B27B0EA9B2721
:1034000001C0CB01415091F7EBCF28173907E1F507
:10341000FD806F2D6F7770E0762F66278E81680FA5
:10342000711D80E090E00E94FC1B20E030E040E253
:1034300051E40E94E11DF7FC905860938805709359
:10344000890580938A0590938B056B8170E0762FB8
:1034500066278C81680F711D80E090E00E94FC1B44
:1034600020E030E040E251E40E94E11D60938C05D1
:1034700070938D0580938E0590938F0580E090E08A
:1034800005C081E090E002C082E090E02FE436E4E5
:1034900046E450E029833A834B835C838130910575
:1034A00071F5E6E7F5E08491E2EBF5E0E491EEE911
:1034B000F5E0F490FF2061F081110E94250EEF2DC0
:1034C000F0E0EE0FFF1FE859FA4FA591B4918C91EF
:1034D000B0929D05A0929C058CE390E090939F058F
:1034E00080939E056AE973E080E995E00E94AC1341
:1034F00064E873E080E090E00E947E0E20C082309D
:10350000910531F466EA73E0C8010E94C61E17C037
:10351000892BA9F420E030E040E650E46091880572
:103520007091890580918A0590918B050E94741D88
:103530002DEA33E04BE250E00E94EE130FC0B09250
:103540009D05A0929C058CE290E090939F0580934E
:103550009E05B80180E995E00E94AC13B0929D05EC
:10356000A0929C0584E590E090939F0580939E0532
:10357000C0908C05D0908D05E0908E05F0908F0561
:10358000A7019601C701B6010E948E1E882319F07B
:1035900064EB73E01AC026013701E89477F82FEF47
:1035A0003FEF4FE75FE7C301B2010E948E1E81111A
:1035B00011C02FEF3FEF4FE75FE7C301B2010E9459
:1035C000F71B18163CF468EB73E080E995E00E9465
:1035D0004E1389C02FEF3FEF4FE75FE4C701B601FD
:1035E0000E94891E18161CF46CEB73E0EECF2FEFCF
:1035F0003FEF4FE75FECC701B6010E94F71B87FD65
:10360000F3CF20E030E0A901C701B6010E94F71B0B
:1036100087FF0FC0E0919005F09191050190F08136
:10362000E02D6DE280E995E00995F7FAF094F7F85E
:10363000F0942AE037ED43EA5BE3C701B6010E944C
:10364000751D2B013C010E945A1E6B017C010E94DA
:10365000FC1B9B01AC01C301B2010E94741D2B0134
:103660003C012AE0B701A60180E995E00E946313BE
:10367000E0919005F09191050190F081E02D6EE2CE
:1036800080E995E0099520E030E040E251E4C30193
:10369000B2010E945D1C6B017C010E945A1E2B012D
:1036A000612C712C2AE0B301A20180E995E00E940F
:1036B0006313C301B2010E94FC1B9B01AC01C70153
:1036C000B6010E94741D20E030E040E251E40E9407
:1036D0005D1C0E945A1EAB0160E070E02AE080E9A8
:1036E00095E00E9463134FE050E060E770E08FE0E8
:1036F00090E00E9463120E949C110E94DD032DCD78
:10370000E6E9F4E01382128288EE93E0A0E0B0E0F4
:1037100084839583A683B78324E133E031832083B8
:1037200025EC30E03587248724EC30E03787268786
:1037300020EC30E0318B208B21EC30E0338B228B7E
:1037400022EC30E0358B248B26EC30E0378B268B57
:10375000118E128E138E148EE3E3F5E0178210861D
:103760001186128613861486158616861786108A89
:10377000118A128A138A148A158A168AECE7F5E0F0
:103780001382128284839583A683B78386E293E0B3
:1037900091838083E0E9F5E01382128220E830E033
:1037A0003583248380E290E0978386833187208766
:1037B00093878287158A158614861786168681E078
:1037C000848B2FEF3FEF338B228B318B208B868BBB
:1037D000178A118E108E88E393E0918380838FEF98
:1037E000848F80A3868F858F84E0878F08950E94C1
:1037F000391C08F481E00895E89409C097FB3EF471
:1038000090958095709561957F4F8F4F9F4F99232D
:10381000A9F0F92F96E9BB279395F69587957795AB
:103820006795B795F111F8CFFAF4BB0F11F460FF6B
:103830001BC06F5F7F4F8F4F9F4F16C0882311F0C3
:1038400096E911C0772321F09EE8872F762F05C0D7
:10385000662371F096E8862F70E060E02AF09A9572
:10386000660F771F881FDAF7880F9695879597F967
:103870000895990F0008550FAA0BE0E8FEEF161601
:103880001706E807F907C0F012161306E407F50754
:1038900098F0621B730B840B950B39F40A2661F0C8
:1038A000232B242B252B21F408950A2609F4A1406B
:1038B000A6958FEF811D811D08950E94701C0C94A8
:1038C000E11C0E94D31C38F00E94DA1C20F09523E2
:1038D00011F00C94CA1C0C94D01C11240C94151DCE
:1038E0000E94F21C70F3959FC1F3950F50E0551F95
:1038F000629FF001729FBB27F00DB11D639FAA2745
:10390000F00DB11DAA1F649F6627B00DA11D661F93
:10391000829F2227B00DA11D621F739FB00DA11DB4
:10392000621F839FA00D611D221F749F3327A00D6E
:10393000611D231F849F600D211D822F762F6A2F0A
:1039400011249F5750409AF0F1F088234AF0EE0F6F
:10395000FF1FBB1F661F771F881F91505040A9F79C
:103960009E3F510580F00C94CA1C0C94151D5F3FBE
:10397000E4F3983ED4F3869577956795B795F795D8
:10398000E7959F5FC1F7FE2B880F911D9695879550
:1039900097F9089597F99F6780E870E060E00895CF
:1039A0009FEF80EC089500240A9416161706180657
:1039B0000906089500240A94121613061406050633
:1039C0000895092E0394000C11F4882352F0BB0FC4
:1039D00040F4BF2B11F460FF04C06F5F7F4F8F4F27
:1039E0009F4F089557FD9058440F551F59F05F3F62
:1039F00071F04795880F97FB991F61F09F3F79F011
:103A000087950895121613061406551FF2CF469592
:103A1000F1DF08C0161617061806991FF1CF869514
:103A20007105610508940895E894BB2766277727F8
:103A3000CB0197F90895A1E21A2EAA1BBB1BFD0129
:103A40000DC0AA1FBB1FEE1FFF1FA217B307E4077D
:103A5000F50720F0A21BB30BE40BF50B661F771FD5
:103A6000881F991F1A9469F76095709580959095B5
:103A70009B01AC01BD01CF0108952F923F924F925F
:103A80005F926F927F928F929F92AF92BF92CF92EE
:103A9000DF92EF92FF920F931F93CF93DF93CDB7F7
:103AA000DEB7CA1BDB0B0FB6F894DEBF0FBECDBF6F
:103AB00009942A88398848885F846E847D848C8440
:103AC0009B84AA84B984C884DF80EE80FD800C8149
:103AD0001B81AA81B981CE0FD11D0FB6F894DEBF2C
:103AE0000FBECDBFED0108955058BB27AA270E94F5
:103AF0008C1D0C94E11C0E94D31C38F00E94DA1C2F
:103B000020F039F49F3F19F426F40C94D01C0EF4E5
:103B1000E095E7FB0C94CA1CE92F0E94F21C58F3B5
:103B2000BA17620773078407950720F079F4A6F5A2
:103B30000C94141D0EF4E0950B2EBA2FA02D0B0142
:103B4000B90190010C01CA01A0011124FF27591BE2
:103B500099F0593F50F4503E68F11A16F040A22FE8
:103B6000232F342F4427585FF3CF46953795279559
:103B7000A795F0405395C9F77EF41F16BA0B620B58
:103B8000730B840BBAF09150A1F0FF0FBB1F661F9F
:103B9000771F881FC2F70EC0BA0F621F731F841FE2
:103BA00048F4879577956795B795F7959E3F08F008
:103BB000B0CF9395880F08F09927EE0F97958795CA
:103BC00008950E94F51D0C94E11C0E94DA1C58F027
:103BD0000E94D31C40F029F45F3F29F00C94CA1CCA
:103BE00051110C94151D0C94D01C0E94F21C68F30A
:103BF0009923B1F3552391F3951B550BBB27AA27A6
:103C000062177307840738F09F5F5F4F220F331FDF
:103C1000441FAA1FA9F335D00E2E3AF0E0E832D0A7
:103C200091505040E695001CCAF72BD0FE2F29D0AA
:103C3000660F771F881FBB1F261737074807AB077C
:103C4000B0E809F0BB0B802DBF01FF2793585F4FF1
:103C50003AF09E3F510578F00C94CA1C0C94151D47
:103C60005F3FE4F3983ED4F3869577956795B795D3
:103C7000F7959F5FC9F7880F911D9695879597F9DE
:103C80000895E1E0660F771F881FBB1F6217730757
:103C90008407BA0720F0621B730B840BBA0BEE1F6C
:103CA00088F7E09508950E945A1E6894B1110C940B
:103CB000151D08950E94FA1C88F09F5798F0B92F9F
:103CC0009927B751B0F0E1F0660F771F881F991F51
:103CD0001AF0BA95C9F714C0B13091F00E94141DC2
:103CE000B1E008950C94141D672F782F8827B85FD2
:103CF00039F0B93FCCF3869577956795B395D9F7A9
:103D00003EF490958095709561957F4F8F4F9F4FB2
:103D100008950E94391C08F48FEF08950E94391C01
:103D2000880B990B089597FB072E16F4009407D083
:103D300077FD09D00E94A71E07FC05D03EF49095A0
:103D400081959F4F0895709561957F4F0895AA1BA7
:103D5000BB1B51E107C0AA1FBB1FA617B70710F076
:103D6000A61BB70B881F991F5A95A9F780959095A8
:103D7000BC01CD010895EE0FFF1F0590F491E02DD9
:103D8000099481E090E0F8940C946E21FB01DC0131
:103D900001900D920020E1F70895AEE0B0E0E3ED70
:103DA000FEE10C944B1D0D891E8986E08C831A83DD
:103DB00009838FEF9FE79E838D83AE01475E5F4F40
:103DC0006F89788DCE0101960E94F01E2F81388573
:103DD000F801E20FF31F10822E96E4E00C94671DA9
:103DE000ACE0B0E0E6EFFEE10C943D1D7C016B0120
:103DF0008A01FC0117821682838181FFBDC1CE0139
:103E000001964C01F7019381F60193FD859193FF93
:103E100081916F01882309F4ABC1853239F493FD98
:103E2000859193FF81916F01853229F4B70190E06C
:103E30000E94D820E7CF512C312C20E02032A0F472
:103E40008B3269F030F4803259F0833269F42061AA
:103E50002CC08D3239F0803339F4216026C02260C5
:103E6000246023C0286021C027FD27C030ED380F13
:103E70003A3078F426FF06C0FAE05F9E300D112438
:103E8000532E13C08AE0389E300D1124332E206249
:103E90000CC08E3221F426FD6BC1206406C08C3626
:103EA00011F4206802C0883641F4F60193FD859133
:103EB00093FF81916F018111C1CF982F9F7D955400
:103EC000933028F40C5F1F4FFFE3F9830DC0833656
:103ED00031F0833771F0833509F05BC022C0F801FF
:103EE000808189830E5F1F4F44244394512C5401D9
:103EF00015C03801F2E06F0E711CF801A080B1808E
:103F000026FF03C0652D70E002C06FEF7FEFC50193
:103F10002C870E94CD202C0183012C852F77222E07
:103F200017C03801F2E06F0E711CF801A080B1805B
:103F300026FF03C0652D70E002C06FEF7FEFC50163
:103F40002C870E94C2202C012C852068222E830100
:103F500023FC1BC0832D90E048165906B0F4B7012E
:103F600080E290E00E94D8203A94F4CFF50127FC3B
:103F7000859127FE81915F01B70190E00E94D820D2
:103F800031103A94F1E04F1A51084114510471F77D
:103F9000E5C0843611F0893639F5F80127FF07C0EE
:103FA00060817181828193810C5F1F4F08C06081A5
:103FB0007181072E000C880B990B0E5F1F4F2F7617
:103FC000722E97FF09C090958095709561957F4FEF
:103FD0008F4F9F4F2068722E2AE030E0A4010E948C
:103FE0001021A82EA81844C0853729F42F7EB22EA0
:103FF0002AE030E025C0F22FF97FBF2E8F36C1F0C6
:1040000018F4883579F0B4C0803719F0883721F07A
:10401000AFC02F2F2061B22EB4FE0DC08B2D846057
:10402000B82E09C024FF0AC09F2F9660B92E06C083
:1040300028E030E005C020E130E002C020E132E0BD
:10404000F801B7FE07C060817181828193810C5FA6
:104050001F4F06C06081718180E090E00E5F1F4FAE
:10406000A4010E941021A82EA818FB2DFF777F2EF7
:1040700076FE0BC0372D3E7FA51450F474FE0AC0A7
:1040800072FC08C0372D3E7E05C0BA2C372D03C008
:10409000BA2C01C0B52C34FF0DC0FE01EA0DF11D94
:1040A0008081803311F4397E09C032FF06C0B39499
:1040B000B39404C0832F867809F0B39433FD13C002
:1040C00030FF06C05A2CB31418F4530C5B18B32CF1
:1040D000B31468F4B70180E290E03C870E94D820D6
:1040E000B3943C85F5CFB31410F43B1801C0312CC8
:1040F00034FF12C0B70180E390E03C870E94D820D3
:104100003C8532FF17C031FD03C088E790E002C054
:1041100088E590E0B7010CC0832F867859F031FF15
:1041200002C08BE201C080E237FD8DE2B70190E072
:104130000E94D820A51438F4B70180E390E00E94D3
:10414000D8205A94F7CFAA94F401EA0DF11D80818A
:10415000B70190E00E94D820A110F5CF332009F4D8
:1041600051CEB70180E290E00E94D8203A94F6CF79
:10417000F7018681978102C08FEF9FEF2C96E2E1D5
:104180000C94591DFC010590615070400110D8F746
:10419000809590958E0F9F1F0895FC01615070408F
:1041A00001900110D8F7809590958E0F9F1F08956C
:1041B0000F931F93CF93DF93FB01238121FD03C056
:1041C0008FEF9FEF28C022FF16C0468157812481C0
:1041D00035814217530744F4A081B1819D012F5FBF
:1041E0003F4F318320838C93268137812F5F3F4F50
:1041F0003783268310C0EB01092F182F0084F18527
:10420000E02D0995892BE1F68E819F8101969F8390
:104210008E83812F902FDF91CF911F910F91089561
:10422000FA01AA27283051F1203181F1E8946F93E7
:104230006E7F6E5F7F4F8F4F9F4FAF4FB1E03ED08D
:10424000B4E03CD0670F781F891F9A1FA11D680F2B
:10425000791F8A1F911DA11D6A0F711D811D911D5E
:10426000A11D20D009F468943F912AE0269F1124D3
:104270003019305D3193DEF6CF010895462F477037
:10428000405D4193B3E00FD0C9F7F6CF462F4F7092
:10429000405D4A3318F0495D31FD4052419302D0F0
:1042A000A9F7EACFB4E0A695979587957795679596
:1042B000BA95C9F700976105710508959B01AC0196
:1042C0000A2E06945795479537952795BA95C9F7BD
:1042D000620F731F841F951FA01D0895F894FFCFD0
:1042E00000000000000000000000000000000000CE
:1042F00000000000000000000000000000000000BE
:1043000000000000000000000000000000000000AD
:10431000000000000000000000000000000000801D
:10432000808000000000000000000000000000008D
:10433000008080C0C00000000000000000000000FD
:10434000000000000000000000000000000000006D
:10435000000000000000000000000000000000005D
:10436000000000000000000000000000000000004D
:104370000000000080C0E0F0F8FCF8E00000000061
:1043800000000000000000000000000000808080AD
:10439000808000808000000000808080808000FF9E
:1043A000FFFF00000000808080800000808000000F
:1043B00080FFFF808000808000808080800080807F
:1043C0000000000000808000008C8E84000080F8D7
:1043D000F8F880000000000000000000000000006D
:1043E000F0F0F0F0F0F0F0F0F0F0F0F0E0E0C0808D
:1043F00000E0FCFEFFFFFF7FFFFFFFFFFF0000006C
:104400000000000000000000000000FEFFC70101E6
:10441000010183FFFF00007CFEC70101010183FF52
:10442000FFFF0038FEC78301010183C7FFFF0000C3
:1044300001FFFF010100FFFF0701010100007FFFF5
:1044400080000000FFFF7F0000FFFFFF000001FF72
:10445000FFFF01000000000000000000000000005D
:10446000030F3F7F7FFFFFFFFFFFFFFFE7C7C78F00
:104470008F9FBFFFFFC3C0F0FFFFFFFFFFFCFCFCEF
:10448000FCFCFCFCFCF8F8F0F0E0C00001030303C6
:104490000303010303000000000103030303010100
:1044A00003010000000103030303010103030000F3
:1044B00000030300000003030000000000000001EF
:1044C00003030303030100000001030100000003D4
:1044D00003010000000000000000000000000000D8
:1044E000000103070F1F3F7F0080C0E0F0F8FCFED3
:1044F000000000007403BF100C03BB033D031B034B
:104500002F0300000000980D680DC80D3C0D600DD4
:104510004C0D3D0D000000008C09BF10C80DC70DEB
:10452000C2065F0C580C300C4C0C400C600C2F0C6D
:10453000610760070C046605560B380BC10A620A56
:10454000564D4450565F317C315F564D4450560DA8
:104550000A00564D4450525F007C005F564D445057
:10456000520D0A00564D4450455F003A323A005F02
:10457000564D445045005345540072657365746947
:104580006E672E2E2E004352434552520041435433
:1045900055414C006E616E00696E66006F76660074
:0A45A0004F0046460020256400008D
:00000001FF
