:100000000C94E2020C940A030C940A030C940A0365
:100010000C940A030C940A030C940A030C940A032C
:100020000C940A030C940A030C940A030C940A031C
:100030000C940A030C940A030C940A030C940A030C
:100040000C94C40E0C940A030C94F30D0C94CD0D77
:100050000C940A030C940A030C940A030C940A03EC
:100060000C940E0F0C940A0300000000003E5B4F3E
:100070005B3E3E6B4F6B3E1C3E7C3E1C183C7E3C08
:10008000181C577D571C1C5E7F5E1C00183C180016
:10009000FFE7C3E7FF0018241800FFE7DBE7FF30A6
:1000A000483A060E2629792926407F050507407F14
:1000B00005253F5A3CE73C5A7F3E1C1C08081C1C87
:1000C0003E7F14227F22145F5F005F5F06097F017D
:1000D0007F006689956A606060606094A2FFA29468
:1000E00008047E040810207E201008082A1C080836
:1000F0001C2A08081E101010100C1E0C1E0C303884
:100100003E3830060E3E0E06000000000000005F84
:1001100000000007000700147F147F14242A7F2AA0
:100120001223130864623649562050000807030062
:10013000001C2241000041221C002A1C7F1C2A08AE
:10014000083E080800807030000808080808000011
:1001500060600020100804023E5149453E00427F85
:10016000400072494949462141494D331814127FD4
:100170001027454545393C4A494931412111090774
:100180003649494936464949291E000014000000F5
:1001900040340000000814224114141414140041C7
:1001A00022140802015909063E415D594E7C121184
:1001B000127C7F494949363E414141227F414141BC
:1001C0003E7F494949417F090909013E4141517337
:1001D0007F0808087F00417F41002040413F017FA8
:1001E000081422417F404040407F021C027F7F0470
:1001F00008107F3E4141413E7F090909063E4151B9
:10020000215E7F09192946264949493203017F01A8
:10021000033F4040403F1F2040201F3F4038403FA9
:10022000631408146303047804036159494D4300BF
:100230007F4141410204081020004141417F0402F6
:10024000010204404040404000030708002054548D
:1002500078407F284444383844444428384444286B
:100260007F385454541800087E090218A4A49C78BE
:100270007F0804047800447D40002040403D007F1A
:100280001028440000417F40007C047804787C08FA
:100290000404783844444438FC18242418182424CE
:1002A00018FC7C08040408485454542404043F44B3
:1002B000243C4040207C1C2040201C3C4030403CE2
:1002C00044281028444C9090907C4464544C440042
:1002D00008364100000077000000413608000201A6
:1002E0000204023C2623263C1EA1A161123A404092
:1002F000207A38545455592155557941225454780F
:1003000042215554784020545579400C1E527212A7
:100310003955555559395454545939555454580030
:1003200000457C410002457D420001457C407D1234
:1003300011127DF0282528F07C5455450020545496
:100340007C547C0A097F4932494949323A44444441
:100350003A324A4848303A4141217A3A424020787C
:10036000009DA0A07D3D4242423D3D4040403D3C7D
:1003700024FF2424487E4943662B2FFC2F2BFF09A2
:1003800029F620C0887E0903205454794100004496
:100390007D413048484A32384040227A007A0A0A81
:1003A000727D0D19317D2629292F282629292926F4
:1003B00030484D4020380808080808080808382F39
:1003C00010C8ACBA2F102834FA00007B00000814C3
:1003D0002A142222142A14085500550055AA55AA99
:1003E00055AAFF55FF55FF000000FF00101010FF39
:1003F00000141414FF001010FF00FF1010F010F094
:10040000141414FC001414F700FF0000FF00FF1484
:1004100014F404FC141417101F10101F101F1414D0
:10042000141F00101010F0000000001F101010101A
:100430001F10101010F010000000FF10101010100E
:1004400010101010FF10000000FF140000FF00FF4C
:1004500000001F10170000FC04F4141417101714E8
:1004600014F404F40000FF00F7141414141414140A
:10047000F700F7141414171410101F101F1414147D
:10048000F4141010F010F000001F101F0000001FE7
:1004900014000000FC140000F010F01010FF10FF1A
:1004A000141414FF141010101F00000000F010FFAF
:1004B000FFFFFFFFF0F0F0F0F0FFFFFF0000000093
:1004C00000FFFF0F0F0F0F0F3844443844FC4A4A17
:1004D0004A347E02020606027E027E0263554941CC
:1004E000633844443C04407E201E2006027E020203
:1004F00099A5E7A5991C2A492A1C4C7201724C3017
:100500004A4D4D303048784830BC625A463D3E49ED
:100510004949007E0101017E2A2A2A2A2A44445F91
:10052000444440514A444040444A51400000FF0185
:1005300003E080FF000008086B6B08361236243693
:10054000060F090F060000181800000010100030F8
:1005500040FF0101001F01011E00191D1712003C80
:100560003C3C3C000000000000000000230026008E
:100570002900000000080002010000030407000039
:1005800000000000000000000000250028002B00F3
:1005900000000000240027002A00040404040404CE
:1005A0000404020202020202030303030303010222
:1005B00004081020408001020408102001020408F1
:1005C0001020B71B11241FBECFEFD8E0DEBFCDBF78
:1005D00025E0AAEBB3E001C01D92A93AB207E1F70A
:1005E00013E0A0E0B1E0EEE4F3E402C005900D9268
:1005F000AA3BB107D9F712E0C2EED2E004C02197BE
:10060000FE010E94F21EC13ED107C9F70E949B1550
:100610000C94A5210C940000FC01538D448D252FD2
:1006200030E0842F90E0821B930B541710F0CF968C
:10063000089501970895FC01918D828D981761F0BE
:10064000828DDF01A80FB11D5D968C91928D9F5F09
:100650009F73928F90E008958FEF9FEF0895FC01B4
:10066000918D828D981731F0828DE80FF11D858D67
:1006700090E008958FEF9FEF0895FC01918D228DFA
:10068000892F90E0805C9F4F821B91098F7399277F
:10069000089582E894E00E943D0321E0892B09F44B
:1006A00020E0822F0895FC01848DDF01A80FB11D89
:1006B000A35ABF4F2C91848D90E001968F73992798
:1006C000848FA689B7892C93A089B1898C91806485
:1006D0008C93938D848D981306C00288F389E02D46
:1006E00080818F7D80830895EF92FF920F931F93F7
:1006F000CF93DF93EC0181E0888F9B8D8C8D9813D5
:1007000005C0E889F989808185FD24C0F62E0B8D0E
:1007100010E00F5F1F4F0F731127E02E8C8DE81232
:100720000CC00FB607FCFACFE889F989808185FFF4
:10073000F5CFCE010E945303F1CF8B8DFE01E80F60
:10074000F11DE35AFF4FF0820B8FEA89FB8980810C
:10075000806207C0EE89FF896083E889F98980811A
:100760008064808381E090E0DF91CF911F910F91B1
:10077000FF90EF900895CF93DF93EC01888D88234D
:10078000C9F0EA89FB89808185FD05C0A889B989FE
:100790008C9186FD0FC00FB607FCF5CF808185FFD9
:1007A000F2CFA889B9898C9185FFEDCFCE010E9447
:1007B0005303E7CFDF91CF91089580E090E0892B3C
:1007C00029F00E94490381110C94000008953FB75D
:1007D000F8948091060490910704A0910804B091C8
:1007E000090426B5A89B05C02F3F19F00196A11D4D
:1007F000B11D3FBFBA2FA92F982F8827820F911DB7
:10080000A11DB11DBC01CD0142E0660F771F881FFD
:10081000991F4A95D1F708950F931F93CF93DF93B4
:10082000DC0155968C915597823071F0833009F137
:10083000813009F08CC01496ED91FC911597E41B62
:10084000F50BE21BF30B20C01496ED91FC9115976C
:10085000CF01861B970BBC01615071091696ED9173
:10086000FC911797CF01841B950BAC01421B530BD6
:100870006EC01696ED91FC911797CF01861B970BD2
:10088000BC0161507109FA0177FD1BC116968D916B
:100890009C911797681779070CF013C1F7FF04C0F4
:1008A0002E0F3F1FE0E0F0E014968D919C9115977C
:1008B000AF01420F531F841795071CF49C012E1B98
:1008C0003F0B121613060CF0FCC0CB0177FD079608
:1008D00043E0959587954A95E1F79695982F882757
:1008E00097958795E80FF91FE050FF4F67707727BE
:1008F00081E090E001C0880F6A95EAF7482F013047
:10090000110541F088F00230110509F0DAC02E0F10
:100910003F1F15C02E0F3F1FE217F30709F4D1C088
:100920008081842B8193F8CF80952E0F3F1FE21793
:10093000F30709F4C6C0908198239193F8CFE2178A
:10094000F30709F4BEC0808184278193F8CF77FD37
:10095000B8C014968D919C911597681779070CF083
:10096000B0C057FF04C0240F351F40E050E016967A
:100970008D919C911797FA01E20FF31F8E179F0735
:100980001CF49C01241B350B121613060CF099C0A5
:10099000A22F842F86958695869590E8899F600D75
:1009A000711D1124FB01E050FF4F4770A9F198E041
:1009B000941B492F50E0EA01C85FDC4F888129175A
:1009C00090F4421B51092FEF30E002C03595279576
:1009D0004A95E2F782230130110541F068F00230B8
:1009E000110589F06EC00130110519F42081822BA8
:1009F0000CC00130110520F480952081822305C0B0
:100A00000230110531F4208182278083A91708F470
:100A100058C0A91BE058FF4FA83048F1023011051B
:100A200059F4EF018A2F988190959883C058DF4F31
:100A300088508830C0F730C081E00130110509F0DE
:100A400080E08195EF019A2F8883C058DF4F98503E
:100A50009830D0F788EF8A0F86958695869590E82E
:100A6000899FE00DF11D1124E058FF4FA770AA23C4
:100A700041F1B0E0A050BD4F8C910130110529F03B
:100A800038F002301105D1F01CC09081892B18C0BC
:100A900080959081892314C088EF8A0F869586956A
:100AA000869590E8899FE00DF11D1124E058FF4FD5
:100AB000A77039F0B0E0A050BD4F8C91908189278C
:100AC0008083DF91CF911F910F9108950F931F9312
:100AD000CF93DF93DC01FB0155968C9155978230C3
:100AE00081F0833019F1813051F514968D919C91EC
:100AF0001597BC01641B750BAB0141505109BF0137
:100B000081C014966D917C911597CB018E1B9F0B24
:100B1000FC0116968D919C911797BC01641B750B77
:100B2000AB0141505109E21BF30B09C016966D91C0
:100B30007C9117976E1B7F0B621B730B63C057FD75
:100B40001CC116968D919C911797481759070CF068
:100B500014C1F7FF04C02E0F3F1FE0E0F0E0149631
:100B60008D919C911597BF01620F731F8617970790
:100B70001CF49C012E1B3F0B121613060CF0FDC03B
:100B8000CA0157FD079663E0959587956A95E1F749
:100B90009695982F882797958795E80FF91FE0502D
:100BA000FF4F4770552781E090E001C0880F4A95BC
:100BB000EAF7482F0130110541F088F002301105A5
:100BC00009F0DBC02E0F3F1F15C02E0F3F1FE2178D
:100BD000F30709F4D2C08081842B8193F8CF8095EC
:100BE0002E0F3F1FE217F30709F4C7C09081982327
:100BF0009193F8CFE217F30709F4BFC080818427EF
:100C00008193F8CF57FDB9C014968D919C9115979B
:100C1000481759070CF0B1C077FF04C0260F371FE3
:100C200060E070E016968D919C911797FB01E20FA2
:100C3000F31F8E179F071CF49C01261B370B1216FF
:100C400013060CF09AC0A22F862F8695869586955E
:100C500090E8899F400D511D1124FA01E050FF4F8B
:100C60006770A9F198E0961B492F50E0EA01C85F30
:100C7000DC4F8881291790F4421B51092FEF30E097
:100C800002C0359527954A95E2F782230130110578
:100C900041F068F00230110589F06FC00130110594
:100CA00019F42081822B0CC00130110520F48095AD
:100CB0002081822305C00230110531F42081822772
:100CC0008083A91708F459C0A91BE058FF4FA8302A
:100CD00048F10230110559F4EF018A2F988190955F
:100CE0009883C058DF4F88508830C0F731C081E00A
:100CF0000130110509F080E08195EF019A2F88837A
:100D0000C058DF4F98509830D0F788EF8A0F8695FB
:100D10008695869560E8869FE00DF11D1124E058C8
:100D2000FF4FA770AA2349F1B0E0A050BD4F8C91AE
:100D30000130110529F038F002301105D9F01DC03D
:100D40009081892B03C0809590818923808315C071
:100D500088EF8A0F86958695869570E8879FE00DC7
:100D6000F11D1124E058FF4FA77039F0B0E0A050FA
:100D7000BD4F8C9190818927E9CFDF91CF911F9151
:100D80000F910895FC0177FD9AC0808591856817C1
:100D900079070CF094C057FD92C08285938548175F
:100DA00059070CF08CC08589823009F07CC08481A1
:100DB0009581DC01A61BB70BBD01615071098681CD
:100DC0009781FC01E41BF50BAF01415051090AC0AA
:100DD000813041F484819581841B950BAB01BC016A
:100DE000615071092130310529F008F122303105B7
:100DF000E1F10895FA0157FD3796A3E0F595E795DF
:100E0000AA95E1F7F695FE2FEE27F795E7956E0F79
:100E10007F1FFB01E050FF4F4770552781E090E0B6
:100E200001C0880F4A95EAF79081892B3AC0FA01F0
:100E300057FD379623E0F595E7952A95E1F7F69566
:100E4000FE2FEE27F795E7956E0F7F1FFB01E05011
:100E5000FF4F4770552781E090E001C0880F4A9509
:100E6000EAF78095908189231CC0FA0157FD3796D7
:100E700083E0F595E7958A95E1F7F695FE2FEE2745
:100E8000F795E7956E0F7F1FFB01E050FF4F47700E
:100E9000552781E090E001C0880F4A95EAF79081DC
:100EA000892780830895833009F092CF86819781C6
:100EB000861B970BBA01AC014150510993CF08959D
:100EC0000895FC016370658B84819581268137814B
:100ED000613039F0633029F091878087338722872A
:100EE0000895318720879387828708952F923F92B4
:100EF0004F925F926F927F928F929F92AF92BF922A
:100F0000CF92DF92EF92FF920F931F93CF93DF93D5
:100F1000CDB7DEB76C970FB6F894DEBF0FBECDBF6E
:100F20009C8F8B8F5B011A011F830E833701C9824F
:100F3000DC0158964D915C9159974115510509F086
:100F4000E5C018968D919C911997681779070CF058
:100F5000CAC11A968D919C911B97281639060CF0E0
:100F6000C2C18C2C912CFB0136E0C39EE00DF11D1B
:100F70001124FB87EA871E161F060CF0B4C1C401BA
:100F800033E0880F991F3A95E1F79D878C87820D92
:100F9000931D181619060CF0A6C157968C91811155
:100FA00003C0203B08F02F5FAB8DBC8DED91FC9111
:100FB00011970284F385E02DCD012A8F09952A8DA2
:100FC000B5E02B9F90011124F5013596FF87EE8740
:100FD000BB82AA822501A9014A195B09598B488B5A
:100FE000C10108969B8B8A8BE889F989E40DF51D70
:100FF000E859FF4F9491988761013D822C82A88522
:10100000A0FF13C0AB8DBC8DED91FC91B981B130C7
:1010100031F40484F585E02D2E813F8116C00684CD
:10102000F785E02DEE80FF801AC0EE81FF816E16FD
:101030007F06F1F0AB8DBC8DED91FC91B981B130A3
:1010400051F40484F585E02D9301A601B2018B8D46
:101050009C8D09950DC00684F785E02D73018401F0
:1010600094014C815D816A817B818B8D9C8D09957A
:10107000E885E695E887FFEFCF1ADF0A2C813D81EE
:10108000280D391D3D832C834A895B89C416D506FA
:1010900009F0B5CF5FEF451A550A8A819B81880D0B
:1010A000991D9B838A83AE85BF854A165B0609F02E
:1010B0009BCFEE81FF816E167F0609F4F2C0EB8DA7
:1010C000FC8DA081B181F981F13079F4B5016B5FBC
:1010D0007F4F5096ED91FC915197830128E030E0CD
:1010E000A1018B8D9C8D0995DCC06A857B85681973
:1010F00079091E96ED91FC911F9773010C851D8552
:101100009401A1018B8D9C8D0995CBC0FA01349679
:101110009491329765917491291BCB01B7E02B9F75
:10112000800D911D1124FA01259134913B8B2A8B5E
:10113000FC01459154915B834A83FC013296C49033
:10114000319654915E87329614913196D49089816C
:10115000823058F0612E012E000C7708AD2D0D2C39
:10116000000CBB0BB987A88704C019861886612CB0
:10117000712CAB8DBC8DED91FC9111970284F385A0
:10118000E02DCD010995B9818B2E912C689CC00171
:10119000699C900D789C900D1124FC01EA0DFB1DBB
:1011A000FD87EC871C82712C612CE12F110FFF0B46
:1011B00095012E0F3F1F3B872A87AC0CB11CA50160
:1011C0004E0F5F1F5F8B4E8BC1018D0D911DD7FCA4
:1011D0009A95998F888F4E85641608F062C0862D87
:1011E00090E048855985480F591F489D9001499DB9
:1011F000300D589D300D1124D901A20DB31DB98BAE
:10120000A88BAA84BB844C845D84DC80BA85DB1AFD
:10121000E88DF98DE80FF91FFD8BEC8B8D2D8A0D74
:101220002E893F89A216B306B9F1877061F48A81CD
:101230009B810196EA89FB89AA81BB81EA0FFB1F8A
:1012400074909B838A8377FE20C0AB8DBC8DED911B
:10125000FC91B981B13061F40484F585E02D2E81D3
:101260003F814C895D89B5018B8D9C8D09950DC0A1
:101270000684F785E02DEE80FF8084019401488983
:101280005989B2018B8D9C8D0995770CEFEFAE1AC1
:10129000BE0A480C591CC2CF3C813C0D3C83639470
:1012A0009ACFAB8DBC8DED91FC9111970688F78993
:1012B000E02DCD016C960FB6F894DEBF0FBECDBF0A
:1012C000DF91CF911F910F91FF90EF90DF90CF9022
:1012D000BF90AF909F908F907F906F905F904F9056
:1012E0003F902F9009946C960FB6F894DEBF0FBE16
:1012F000CDBFDF91CF911F910F91FF90EF90DF90C5
:10130000CF90BF90AF909F908F907F906F905F90A5
:101310004F903F902F900895AF92BF92CF92EF924F
:10132000FF920F931F93CF93DF93EC01262F888DAD
:10133000998D009709F040C06A3059F41D861C86CB
:101340002C898E859F8538E0239F800D911D112467
:1013500041C06D3009F4AAC08E898823C1F03C8950
:101360008C859D8546E0349F800D911D1124488514
:101370005985481759075CF41D861C868E859F8504
:1013800048E0349F800D911D11249F878E87EA8845
:10139000FB88088919894E855F856C857D85CC8899
:1013A000CE010E9476072C898C859D8536E0239F8F
:1013B000800D911D112442C06A3079F41D861C866F
:1013C0002C89FC013696E4918E859F852E9F800D99
:1013D000911D11249F878E8769C06D3009F466C006
:1013E000FC0134963491631708F460C03196E4919F
:1013F000E61708F45BC0FC013296A590B490462F26
:1014000050E0431B510937E0349FB001359F700D08
:101410001124A60EB71EF501329634913196E4914F
:10142000332311F0E1110DC0F5013496E4912C89BC
:101430008C859D85E29F800D911D11249D878C8751
:1014400035C0F501359644915E89552311F16C89BB
:10145000E32FF0E0E40FF11D47FDFA956E9FD001F8
:101460006F9FB00D11244C855D854A0F5B1FE88589
:10147000F985E417F5076CF41D861C86FC01369689
:10148000E4918E859F856E9F800D911D11249F870D
:101490008E87EA88FB88088919894E855F856C8567
:1014A0007D85CC88CE010E947607BECF81E090E09A
:1014B000DF91CF911F910F91FF90EF90CF90BF9050
:1014C000AF9008956F927F928F929F92AF92BF924A
:1014D000CF92DF92EF92FF920F931F93CF93DF9300
:1014E000EC014B015A0169013801E881F98102845C
:1014F000F385E02D0995E881F9810288F389E02DD3
:1015000087019601A501B401CE010995E881F98111
:10151000A501460D571D415051090288F389E02D60
:101520009601B401CE010995E881F9810088F1891D
:10153000E02D9301A501B401CE010995E881F9815F
:10154000C80CD91CB601615071090088F189E02DE1
:101550009301A501CE010995E881F9810688F789F3
:10156000E02DCE01DF91CF911F910F91FF90EF9071
:10157000DF90CF90BF90AF909F908F907F906F90B3
:101580000994CF92DF92EF92FF920F931F93CF9324
:10159000DF9300D000D000D0CDB7DEB76C01DC0106
:1015A000ED91FC916217730789F4041715072CF469
:1015B000942F852FA801092F182F041B150B9801B4
:1015C0002F5F3F4F048CF58DE02D12C0401751075F
:1015D00009F5261737072CF4962F872FB901292FE5
:1015E000382F261B370B2F5F3F4F068CF78DE02DD2
:1015F0008701C601099526960FB6F894DEBF0FBE87
:10160000CDBFDF91CF911F910F91FF90EF90DF90B1
:10161000CF9008950284F385E02D2D833E834B8384
:101620005C8369837A830995D601ED91FC910488E6
:10163000F589E02D2D813E814B815C8169817A8124
:10164000C6010995D601ED91FC910688F789E02D38
:10165000C60126960FB6F894DEBF0FBECDBFDF9150
:10166000CF911F910F91FF90EF90DF90CF90099451
:10167000EF92FF920F931F93DC01ED91FC91119774
:101680001A960D911C911B9718962D913C911997C4
:1016900000A0F1A1E02D7B0140E050E060E070E0AF
:1016A00009951F910F91FF90EF9008954F925F92CF
:1016B0006F927F928F929F92AF92BF92CF92DF9262
:1016C000EF92FF920F931F93CF93DF9300D0CDB78C
:1016D000DEB76C015A0139014801DC01ED91FC9142
:1016E0000284F385E02D69837A8309956981462E0A
:1016F0007A81572E640C751CD601ED91FC9146142D
:1017000057046CF40088F189E02D87019401A5014C
:10171000B201C6010995BFEF4B1A5B0AEDCF0688EF
:10172000F789E02DC6010F900F90DF91CF911F91A7
:101730000F91FF90EF90DF90CF90BF90AF909F9070
:101740008F907F906F905F904F900994AF92BF926F
:10175000CF92DF92EF92FF920F931F93CF93DF937D
:1017600000D000D0CDB7DEB75C016901DC01ED919E
:10177000FC910284F385E02D4B835C8369837A833B
:101780000995D501ED91FC9169817A819B012C0D20
:101790003D1D215031090488F589E02D78014B81E8
:1017A0005C818A01C5010995D501ED91FC910688FE
:1017B000F789E02DC5010F900F900F900F90DF91EA
:1017C000CF911F910F91FF90EF90DF90CF90BF903E
:1017D000AF900994AF92BF92CF92DF92EF92FF92B7
:1017E0000F931F93CF93DF9300D000D0CDB7DEB718
:1017F0005C016901DC01ED91FC910284F385E02D2F
:101800004B835C8369837A830995D501ED91FC91C3
:101810004B815C81C40ED51EB1E0CB1AD10804887F
:10182000F589E02D7801860169817A819B01C501E6
:101830000995D501ED91FC910688F789E02DC50148
:101840000F900F900F900F90DF91CF911F910F91FC
:10185000FF90EF90DF90CF90BF90AF9009940895E4
:10186000EF92FF920F931F93DC01ED91FC9100A08A
:10187000F1A1E02D09951F910F91FF90EF90089530
:101880000F931F93DC01ED91FC91068CF78DE02DF9
:1018900009951F910F9108950F931F93DC01ED910E
:1018A000FC91048CF58DE02D09951F910F91089501
:1018B000DC01ED91FC910084F185E02D09940895FF
:1018C0002F923F924F925F926F927F928F929F9250
:1018D000AF92BF92CF92DF92EF92FF920F931F933E
:1018E000CF93DF9300D01F92CDB7DEB74C017B833F
:1018F0006A836A01590117019801241B350B37FFD0
:1019000003C0319521953109C5014A815B81841B52
:10191000950B97FF03C091958195910951E05983EB
:101920008217930714F019820BC09A2D8B2D580142
:10193000092F182F9A818B81DB82CA82C92ED82E5B
:101940008A819B81A816B9065CF49C2D8D2D6801B7
:10195000092F182F9A818B81BB82AA82A92EB82EBB
:101960002501AA81BB814A1A5B0A38016C187D08DF
:1019700077FE03C0719461947108720157FE03C031
:10198000BFEFEB1AFB0AF594E794C016D1061CF0E2
:101990000FEF1FEF1FC001E010E01CC0D401ED915C
:1019A000FC91B9810484F585E02D9101BB23C1F040
:1019B0004A815B81B601C4010995E618F708F7FE74
:1019C00004C0C00ED11EE40CF51CEA81FB813196E7
:1019D000FB83EA834A815B81A416B506FCF604C04A
:1019E000A6016A817B81E7CF0F900F900F90DF9166
:1019F000CF911F910F91FF90EF90DF90CF90BF900C
:101A0000AF909F908F907F906F905F904F903F909E
:101A10002F90089585ED8093BC008091BC0084FDDB
:101A2000FCCF10925D0408954091DC03262F30E036
:101A3000240F311D21323105DCF420915D04243066
:101A4000C9F4FC0180E090E0861758F43091DC0383
:101A50002191DC01A654BC4FA30FB11D2C9301961C
:101A6000F3CF8091DC03680F6093DC0380E008957E
:101A700081E0089582E008950895E0910B0480913B
:101A80000A04E81730F4F0E0E45FFB4F808190E057
:101A900008958FEF9FEF089590910B0480910A04B1
:101AA000981750F4E92FF0E0E45FFB4F208130E01D
:101AB0009F5F90930B0402C02FEF3FEFC901089581
:101AC00080910A0490E020910B04821B91090895F3
:101AD000CF92DF92EF92FF920F931F93CF93DF93FA
:101AE0007C01262F972F8A0180915E04882391F034
:101AF000C62FD72F6E01C40ED51ECC15DD0571F093
:101B00006991D701ED91FC910190F081E02DC70121
:101B10000995F3CF642F822F0E94140DC801DF9125
:101B2000CF911F910F91FF90EF90DF90CF9008958C
:101B3000CF93DF931F92CDB7DEB7698320915E0408
:101B40002223D1F020918104203240F021E030E0C6
:101B5000FC013383228380E090E015C080915F0414
:101B6000E82FF0E0E05AFB4F998190838F5F8093DC
:101B70005F048093810405C061E0CE0101960E945C
:101B8000140D81E090E00F90DF91CF9108950895BA
:101B900080E090E008950E94F81E1F920F920FB609
:101BA0000F9211242F933F934F935F936F937F93E3
:101BB0008F939F93AF93BF93EF93FF9382E894E04B
:101BC0000E945303FF91EF91BF91AF919F918F912D
:101BD0007F916F915F914F913F912F910F900FBE29
:101BE0000F901F9018951F920F920FB60F9211240D
:101BF0002F938F939F93EF93FF93E0919204F09133
:101C000093048081E0919804F091990482FD12C0C0
:101C1000908180919B048F5F8F7320919C04821729
:101C200051F0E0919B04F0E0EE57FB4F958F8093CD
:101C30009B0401C08081FF91EF919F918F912F9123
:101C40000F900FBE0F901F901895833081F028F4ED
:101C5000813099F08230A1F008958730A9F0883062
:101C6000B9F08430D1F4809180008F7D03C08091E1
:101C700080008F7780938000089584B58F7702C0AD
:101C800084B58F7D84BD08958091B0008F7703C0A7
:101C90008091B0008F7D8093B00008951F93CF9303
:101CA000DF93282F30E0F901EE58FA4F8491F901C3
:101CB000E255FA4FD491F901E656FA4FC491CC237C
:101CC000C9F0162F81110E94250EEC2FF0E0EE0FC7
:101CD000FF1FEA57FA4FA591B4918FB7F8941111ED
:101CE00005C09C91ED2FE095E92302C0EC91ED2B0E
:101CF000EC938FBFDF91CF911F9108958F929F92A8
:101D0000AF92BF92CF92DF92EF92FF926B017C0174
:101D10000E94E7034B015C01C114D104E104F1040A
:101D2000F1F00E94E703DC01CB0188199909AA09A7
:101D3000BB09883E9340A105B10570F321E0C21AAA
:101D4000D108E108F10888EE880E83E0981EA11CF6
:101D5000B11CC114D104E104F10419F7DDCFFF90E7
:101D6000EF90DF90CF90BF90AF909F908F900895AD
:101D70002FB7F894609102047091030480910404D9
:101D8000909105042FBF08951F920F920FB60F92E6
:101D900011242F933F938F939F93AF93BF93809181
:101DA000020490910304A0910404B09105043091C1
:101DB000010423E0230F2D3720F40196A11DB11D4E
:101DC00005C026E8230F0296A11DB11D2093010432
:101DD0008093020490930304A0930404B093050439
:101DE0008091060490910704A0910804B091090421
:101DF0000196A11DB11D8093060490930704A09342
:101E00000804B0930904BF91AF919F918F913F91C6
:101E10002F910F900FBE0F901F9018951F920F9249
:101E20000FB60F9211242F933F934F935F936F93AD
:101E30007F938F939F93AF93BF93EF93FF93809183
:101E4000B900887F803609F49CC068F5883209F4AF
:101E50005BC090F4803109F454C038F4882309F44D
:101E6000F6C0883009F44DC0F6C0883109F44CC082
:101E7000803209F45DC0EFC0803409F468C048F4D2
:101E8000803309F455C0883309F0E5C080935B04C2
:101E9000D8C0803509F44FC0883509F45DC0883456
:101EA00009F0D9C0D6C0883909F4C7C0A8F488376A
:101EB00009F467C038F4883609F463C0803709F440
:101EC00060C0C9C0883809F4B8C0803909F45FC05F
:101ED000803809F0C0C05BC0803B09F486C038F48C
:101EE000803A09F466C0883A09F47FC0B4C0803CE7
:101EF00009F4A7C0883C09F4A4C0883B09F48AC04F
:101F0000AAC08091380410C090915A04809159045D
:101F1000981770F5E0915A0481E08E0F80935A046F
:101F2000F0E0E75CFB4F80818093BB0085EC86C0CE
:101F300080935B048EC0E0915A0481E08E0F809301
:101F40005A048091BB00F0E0E75CFB4F80839091E6
:101F50005A04809159046EC0E0915A0481E08E0FBA
:101F600080935A048091BB00F0E0E75CFB4F8083D4
:101F700080915C0481116DC081E08093370484EA14
:101F800061C083E080935D0410920004CFCF809104
:101F90000004803208F051C0E091000481E08E0F0F
:101FA000809300048091BB00F0E0E052FC4F8083FE
:101FB000BDCF85EC8093BC0010925D04809100043D
:101FC000803230F4E0910004F0E0E052FC4F1082E7
:101FD0006091000470E0E091DE03F091DF0380EE99
:101FE00093E009951092000436C084E080935D046C
:101FF0001092DD031092DC03E091DA03F091DB0331
:1020000009958091DC03811105C081E08093DC0398
:102010001092BA03E091DD0381E08E0F8093DD031F
:10202000F0E0E654FC4F80818093BB009091DD038B
:102030008091DC03981708F479CF85E88093BC0081
:102040000AC085EC8093BC0010925D0404C010921D
:102050005B040E940A0DFF91EF91BF91AF919F9198
:102060008F917F916F915F914F913F912F910F9041
:102070000FBE0F901F90189510925D0481E0809321
:102080005C041092370461E082E10E944E0E61E030
:1020900083E10E944E0EE9EBF0E080818E7F808329
:1020A00080818D7F808388E48093B80085E480936D
:1020B000BC00089590919C05992339F08EBD0000D5
:1020C0000DB407FEFDCF8EB5089528E030E040E85E
:1020D000E0919F05F091A00550819091A605909503
:1020E00095239083E0919D05F0919E059091A50523
:1020F000542F582319F05081952B03C0508190958F
:1021000095239083E0919F05F091A00550819091D7
:10211000A605952B9083469521503109C9F608955F
:10212000CF92DF92EF92FF920F931F93CF93DF93A3
:102130006C017A018B01C0E0D0E0CE15DF0589F09B
:10214000D8016D918D01D601ED91FC910190F08146
:10215000E02DC6010995892B11F47E0102C021965C
:10216000ECCFC701DF91CF911F910F91FF90EF90BE
:10217000DF90CF900895E2E8F4E0A089B18982E091
:102180008C93A485B5851C92A685B7858FEC8C931E
:10219000108EA489B58986E08C93A289B3898C912D
:1021A00080618C93A289B3898C9188608C93A28979
:1021B000B3898C9180688C930288F389E02D8081AB
:1021C0008F7D80830895382F209181049091800421
:1021D000213208F049C080915D048111FCCF42E0BA
:1021E00040935D0430935C043FEF30935B041092A6
:1021F0005A0420935904A0E6B4E049E354E0FA01FC
:102200003E2F341B321718F43D913193F9CF1092C1
:10221000380420913804990F922B909338049091B0
:102220003704913061F41092370490913804909300
:10223000BB009091BC0093FDF8CF95EC01C095EEEA
:102240009093BC0090915D049230E1F390915B0417
:102250009F3F79F080915B04803241F080915B0474
:10226000803331F084E005C081E003C082E001C02A
:1022700083E010925F041092810410925E0408952E
:10228000682F87E695E00C94980DCF93C82F809126
:1022900097058F3F59F1E091A105F091A20580814A
:1022A0009091A705982B9083E091A305F091A40548
:1022B00020819091A805909592239083E091A105AB
:1022C000F091A20520819091A7059095922390838B
:1022D0008C2F0E945A10E091A105F091A2059081E7
:1022E0008091A705892B8083CF91089580919505D2
:1022F00091E090935E048093800410925F041092AA
:10230000810460E087E695E00E94980D6C2F87E6D7
:1023100095E00E94980D81E0CF910C94E310EF922C
:10232000FF920F931F93CF93DF9381E20E94451199
:1023300080E00E9445118FE70E94451182E20E94D1
:10234000451180E00E94451183E00E944511809173
:1023500097058F3F79F1E091A105F091A205908159
:102360008091A705892B8083E091A305F091A405B6
:1023700090818091A805892B8083E091A105F0913F
:10238000A20590818091A705809589238083C0E074
:10239000D1E089910E945A1083E0C030D807C9F774
:1023A000E091A105F091A20590818091A705892B6C
:1023B000808330C0F090B8008CE08093B800C0E01B
:1023C000D1E0EE24E39480919505E0925E04809341
:1023D000800410925F041092810480E490E00E94D7
:1023E000401100E010E0FE01E00FF11F608187E680
:1023F00095E00E94980D0F5F1F4F0031110599F76E
:1024000081E00E94E310609683E0C030D807D9F6DF
:10241000F092B800DF91CF911F910F91FF90EF9054
:1024200008952F923F924F925F926F927F928F9278
:102430009F92AF92BF92CF92DF92EF92FF920F9353
:102440001F93CF93DF9300D000D0CDB7DEB78C01C0
:102450007B015C834B8381E090E05C01A41AB50AA8
:10246000CA019195819591091C01220C331C460FDC
:10247000571F21E030E0B8018BE795E00E94580C2F
:10248000A7012B813C81421B530B21E030E0B801B6
:102490008BE795E00E94580C6B817C81600F711F67
:1024A00021E030E0A7018BE795E00E94580CB801CD
:1024B0008B819C81681B790B21E030E0A7018BE7C1
:1024C00095E00E94580CC12CD12CE1E0F0E0FA8399
:1024D000E9832B813C81C216D3060CF076C0B7FC91
:1024E0000BC02B813C81215031093C832B8332E08E
:1024F000230E311CA20CB31C8FEFC81AD80AE98135
:10250000FA813296FA83E983AE0EBF1E3601600E61
:10251000711E21E030E08B809C808E0C9F1CA401FA
:10252000B3018BE795E00E94580C28014C185D0818
:1025300021E030E0A401B2018BE795E00E94580C45
:1025400021E030E047018B819C81881A990AA4011F
:10255000B3018BE795E00E94580C21E030E0A40124
:10256000B2018BE795E00E94580C46018E0C9F1C2F
:1025700021E030E0A4016B807C80600E711EB3010D
:102580008BE795E00E94580C21E030E0A40128017F
:10259000EB81FC814E1A5F0AB2018BE795E00E9445
:1025A000580C47018C189D0821E030E0A401B301CC
:1025B0008BE795E00E94580C21E030E0A401B201C5
:1025C0008BE795E00E94580C84CF0F900F900F90EE
:1025D0000F90DF91CF911F910F91FF90EF90DF90BF
:1025E000CF90BF90AF909F908F907F906F905F90B3
:1025F0004F903F902F9008958F929F92AF92BF92ED
:10260000CF92DF92EF92FF926B017C010E94B80E95
:102610004B015C01C60ED71EE81EF91E0E94B80EC3
:10262000681579058A059B0528F0C616D706E806C1
:10263000F906A0F7FF90EF90DF90CF90BF90AF909A
:102640009F908F90089590E0FC01E255FA4F2491FD
:10265000FC01E656FA4F8491882399F090E0880FA8
:10266000991FFC01E057FA4FA591B491FC01EA577C
:10267000FA4F859194918FB7F894EC91E22BEC93FB
:102680008FBF0895DC01ED91FC910190F081E02D68
:1026900009946115710579F0FB0101900020E9F7BB
:1026A0003197AF01461B570BDC01ED91FC91028085
:1026B000F381E02D099480E090E00895CF93DF93BB
:1026C000C0916105D09162056EE973E0CE010E9470
:1026D00049136FE673E0CE01DF91CF910C9449135B
:1026E0004F925F926F927F92EF92FF920F931F93A0
:1026F000CF93DF93CDB7DEB7A1970FB6F894DEBFC7
:102700000FBECDBF7C01FA01CB0119A2223008F423
:102710002AE08E010F5D1F4F422E512C612C712C2F
:10272000BF01A30192010E94521DF901CA0101508B
:1027300011096A3014F4605D01C0695CD8016C93C2
:10274000232B242B252B61F7B801C7010E944913C5
:10275000A1960FB6F894DEBF0FBECDBFDF91CF912B
:102760001F910F91FF90EF907F906F905F904F902F
:102770000895CF92DF92EF92FF920F931F93CF9322
:10278000DF936B01770FEE08FF08F7FE1BC0EC012B
:102790006DE20E9442138C0144275527BA014C195F
:1027A0005D096E097F092AE0CE010E947013800F37
:1027B000911FDF91CF911F910F91FF90EF90DF90CC
:1027C000CF9008952AE0B701A601DF91CF911F9124
:1027D0000F91FF90EF90DF90CF900C9470130C94BA
:1027E00049132F923F924F925F926F927F928F92F6
:1027F0009F92AF92BF92CF92DF92EF92FF920F9390
:102800001F93CF93DF93CDB7DEB728970FB6F89419
:10281000DEBF0FBECDBF4B015C017A01390120E064
:102820003CE34CE156EC0E942E1C9701295F3F4F80
:1028300038872F83811135C081E090E090938E0519
:1028400080938D0590938C0580938B0582E0809317
:102850008F0584E090E09093880580938705F0923F
:102860008A05E092890565EA73E08BE795E00E94AE
:10287000EF1381E080938F051092910580E190E045
:1028800090938805809387058F81988590938A051A
:102890008093890567EA73E08BE795E00E94EF1368
:1028A000CCC0C501B4010E948A1E1B012C018E01FF
:1028B0000C5F1F4F9AE0291631042CF43F922F929F
:1028C0008AEA93E004C03F922F928BEA93E09F93B1
:1028D0008F931F930F930E94041F0F900F900F90E0
:1028E0000F900F900F90B101330C880B990B0E9441
:1028F000351C9B01AC01C501B4010E94AB1D20E059
:1029000030E040E251E40E94941C0E948A1E7F93B2
:102910006F938BEA93E09F938F939E012F5F3F4FBE
:1029200059013F932F930E94041F81E090E0909300
:102930008E0580938D0590938C0580938B0582E0A6
:1029400080938F058FEF9FEF909388058093870585
:10295000F0928A05E0928905B8018BE795E00E9424
:10296000EF13B7016150710942E050E089E190E056
:102970000E94111247013EE0830E911C67018DE019
:10298000C80ED11C01E010E023E030E0A60167E1B1
:1029900070E08BE795E00E944C0C21E030E0A40150
:1029A00068E170E08BE795E00E944C0C23E030E09A
:1029B000A60167E170E08BE795E00E944C0C21E0F6
:1029C00030E0A40166E170E08BE795E00E944C0CDA
:1029D00023E030E0A60167E170E08BE795E00E941C
:1029E0004C0C81E080938F05109291058BE190E073
:1029F00090938805809387052F81388530938A05C9
:102A000020938905B5018BE795E00E94EF131092A2
:102A100088051092870534E1E30EF11CF0928A05D7
:102A2000E0928905B3018BE795E00E94EF130F90C8
:102A30000F900F900F900F900F9028960FB6F8946C
:102A4000DEBF0FBECDBFDF91CF911F910F91FF90E1
:102A5000EF90DF90CF90BF90AF909F908F907F903E
:102A60006F905F904F903F902F900895BF92CF92BC
:102A7000DF92EF92FF920F931F93CF93DF93B82EC5
:102A80000E94B80E6B017C010FE115E0C1E6D5E0B4
:102A90006EEA73E0888199810E94EF134B2D50E01C
:102AA00060E070E02AE0888199810E94701365EBF4
:102AB00073E0888199810E94EF132AE0B701A60193
:102AC000888199810E94701367EB73E088819981F6
:102AD0000E94EF13F80186819781A085B185B70127
:102AE000A601481B590B6A0B7B0B2AE08881998150
:102AF0000E94701367EB73E0888199810E94EF1345
:102B0000F801468157816085718582859385A4850A
:102B1000B585481B590B6A0B7B0B2AE0888199818C
:102B2000DF91CF911F910F91FF90EF90DF90CF90A9
:102B3000BF900C947013CF93DF93CDB7DEB72D9772
:102B40000FB6F894DEBF0FBECDBF789484B5826017
:102B500084BD84B5816084BD85B5826085BD85B541
:102B6000816085BD80916E00816080936E001092BF
:102B7000810080918100826080938100809181003A
:102B800081608093810080918000816080938000CB
:102B90008091B10084608093B1008091B000816029
:102BA0008093B00080917A00846080937A00809155
:102BB0007A00826080937A0080917A0081608093AD
:102BC0007A0080917A00806880937A001092C10028
:102BD00010926305109264051092650510926605C7
:102BE00010922105109222051092230510922405BF
:102BF00068EB7BE080E090E00E94FC1282E894E0C9
:102C000090936205809361050E94BB100E94B80EEC
:102C100060932105709322058093230590932405EA
:102C200060E673E080916105909162050E94EF1368
:102C30006AE070E080E090E00E94FC1281E0809306
:102C400035050E94BB1010920B0410920A041092DA
:102C50005F04109281040E943C1084E00E942313C0
:102C600061E084E00E944E0E82E0809396058CE342
:102C700080939505809197058F3F09F4B6C08091A8
:102C800099050E94231380919B050E942313809134
:102C90009B05082E000C990BFC01E656FA4FE491B7
:102CA000F0E0EE0FFF1FEA57FA4F25913491309371
:102CB000A2052093A105FC01E255FA4FE491E093AF
:102CC000A70580919905082E000C990BFC01E6568A
:102CD000FA4FE491F0E0EE0FFF1FEA57FA4F25910B
:102CE00034913093A4052093A305FC01E255FA4FDB
:102CF000E491E093A80580919C0581113CC08091EE
:102D000097050E942313809198050E9423138091B8
:102D10009805082E000C990BFC01E656FA4FE49139
:102D2000F0E0EE0FFF1FEA57FA4F259134913093F0
:102D3000A00520939F05FC01E255FA4FE491E09332
:102D4000A60580919705082E000C990BFC01E6560C
:102D5000FA4FE491F0E0EE0FFF1FEA57FA4F25918A
:102D6000349130939E0520939D05FC01E255FA4F66
:102D7000E491E093A50580919C05882309F43BC06C
:102D80001FB7F89480912C04811124C0E4EAF5E087
:102D90008491E8EBF5E09491E82FF0E0EE0FFF1F4F
:102DA000E057FA4FA591B491EC91E92321F461E049
:102DB0008AE00E944E0E8AE00E9423138CB5806147
:102DC0008CBD8CB580648CBD8DE00E9423138BE09C
:102DD0000E94231380912C048F5F80932C041FBFCB
:102DE00080E58CBD81E08DBD06C010925F0410921D
:102DF00081040E943C1080919A0587FD1DC00E94AD
:102E0000231361E080919A050E944E0E61E070E00C
:102E100080E090E00E947E0E60E080919A050E9422
:102E20004E0E6AE070E080E090E00E947E0E61E06D
:102E300080919A050E944E0E8EEA0E94451185ED02
:102E40000E94451180E80E94451188EA0E944511C0
:102E50008FE10E94451183ED0E94451180E00E94A0
:102E6000451180E40E9445118DE80E94451184E1DE
:102E70000E94451180E20E94451180E00E944511A8
:102E800081EA0E94451188EC0E9445118AED0E945A
:102E9000451182E00E94451181E80E9445118FE8AA
:102EA0000E94451189ED0E94451181EF0E94451154
:102EB0008BED0E94451180E40E94451184EA0E9436
:102EC000451186EA0E9445118EE20E9445118FEA63
:102ED0000E9445110E948F1164E670E080E090E04E
:102EE0000E947E0E80E092E0E0E0F1E0DF019C01D4
:102EF0001D9221503040E1F761E08BE795E00E94A0
:102F0000610774EF472E55245394612C712C88244B
:102F10008394912CAE014F5F5F4F5A011E0159E01F
:102F2000250E311CF6E0CF2ECA0CCD860E94B80EBD
:102F3000672B682B692B41F40E94B80E6230710533
:102F40008105910508F499C00E94B80E609333047E
:102F500070933404809335049093360400912F04C9
:102F600010913004209131043091320460177107C0
:102F70008207930740F460932F047093300480938A
:102F800031049093320400912F0410913004209169
:102F90003104309132046B017C01C01AD10AE20A7B
:102FA000F30A970186010A3F11052105310508F44E
:102FB00064C060932F047093300480933104909325
:102FC000320440922D0550922E0560922F0570928A
:102FD000300510923105109232051092330510928F
:102FE00034058091250590912605A0912705B09183
:102FF00028058093290590932A05A0932B05B0936B
:103000002C050E94B80E60932505709326058093C9
:103010002705909328050E94B80E609321057093B0
:103020002205809323059093240581E00E943615A4
:1030300062E773E080916105909162050E94EF1351
:103040000E94B80EAB01BC012AE08091610590910D
:1030500062050E9470130E945E1365E070E080E0DC
:1030600090E00E94FC120E94B80E609325057093B8
:103070002605809327059093280580E480937C00A3
:1030800080917A00806480937A0080917A0086FD36
:10309000FCCF809178002091790090E0922B909362
:1030A0002E0480932D04883091059CF067EF7FEF0C
:1030B0000E94CA1E67577F4F072E000C880B990B82
:1030C0000E94351C2DEC3CEC4CEC5DE30E94941C02
:1030D00004C060E07CE38CE196EC90928C058092D9
:1030E0008B0510928E0510928D05A0E0B1E0E0E016
:1030F000F2E01D923197E9F724E733E043E050E036
:103100000E94F113F5011192E215F305E1F701E0D8
:1031100000935E041CE51093800410925F041092EB
:10312000810481E00E94E31000935E041093800408
:1031300010925F041092810483E090E00E9440119D
:1031400080E090E00E94401184E090E00E944011F5
:1031500081E00E94E3108111B1C08BEF98E10197EB
:10316000F1F780915D048111FCCF81E080935D04D3
:1031700080935C049FEF90935B0410925A0497E055
:10318000909359048093380480913804886B80931D
:10319000380480913704813061F4109237048091B3
:1031A00038048093BB008091BC0083FDF8CF85EC90
:1031B00001C085EE8093BC0080915D048130E1F315
:1031C00080915A04883018F480915A0401C088E034
:1031D000A9E3B4E02CE034E0F9019E2F921B98178C
:1031E00018F49D919193F9CF10920B0480930A04E7
:1031F000850187E695E00E944C0DD8018D938D01E5
:10320000A215B305B1F7288530E0322F22278F8130
:10321000280F311DF5018FEF9FEFCD84CE1691F071
:103220004191842748E0BC017695679580FF06C0F0
:10323000CB01B1E08B27B0EA9B2701C0CB01415005
:1032400091F7EBCF28173907E1F51D81612F6F77D3
:1032500070E0762F66278E81680F711D80E090E008
:103260000E94331C20E030E040E251E40E94181E2E
:1032700017FD9058609373057093740580937505DE
:10328000909376056B8170E0762F66278C81680FAE
:10329000711D80E090E00E94331C20E030E040E2AD
:1032A00051E40E94181E609377057093780580930F
:1032B000790590937A0500E010E005C001E010E088
:1032C00002C002E010E02FE436E446E450E0298337
:1032D0003A834B835C8340922D0550922E05609279
:1032E0002F05709230051092310510923205109220
:1032F0003305109234058091250590912605A09103
:103300002705B09128058093290590932A05A0935D
:103310002B05B0932C050E94B80E60932505709381
:10332000260580932705909328050E94B80EC0902B
:103330002105D0902205E0902305F0902405DC01C2
:10334000CB018C199D09AE09BF0982339105A105F6
:10335000B10568F422E3C22ED12CE12CF12CC81A5D
:10336000D90AEA0AFB0AC701B6010E94FC120E94B0
:10337000B80E6093210570932205809323059093E6
:10338000240582E00E94361562E773E080916105B2
:10339000909162050E94EF13B801809161059091B0
:1033A00062050E94B9130E945E1365E070E080E040
:1033B00090E00E94FC120E94B80E60932505709365
:1033C000260580932705909328050130110509F003
:1033D000C2C0E6E7F5E08491E2EBF5E0F490EEE9B7
:1033E000F5E0E490EE2009F4BCC181110E94250EA5
:1033F000EE2DF0E0EE0FFF1FE859FA4FA591B491C2
:10340000EC91FE2209F4ADC1E12CF12C40922D0586
:1034100050922E0560922F05709230051092310562
:1034200010923205109233051092340580912505D3
:1034300090912605A0912705B09128058093290534
:1034400090932A05A0932B05B0932C050E94B80EEB
:103450006093250570932605809327059093280592
:103460000E94B80E2091210530912205409123053C
:1034700050912405DC01CB01821B930BA40BB50BEF
:1034800082339105A105B10560F422E330E040E00C
:1034900050E0281B390B4A0B5B0BCA01B9010E9493
:1034A000FC120E94B80E6093210570932205809350
:1034B00023059093240583E00E94361562E773E0AC
:1034C00080916105909162050E94EF13B80180918F
:1034D0006105909162050E94B91362E773E08091E3
:1034E0006105909162050E94EF13B701809161051B
:1034F000909162050E94B9130E945E1365E070E02E
:1035000080E090E00E94FC120E94B80E60932505B6
:10351000709326058093270590932805909288053F
:10352000809287058CE390E090938A0580938905CB
:1035300068E773E08BE795E00E94EF13B80131E094
:10354000632784E00E944E0E64E873E080E090E020
:103550000E947E0E20C00230110531F464E873E051
:10356000C5010E94FD1E17C0012BA9F420E030E028
:1035700040E650E460917305709174058091750583
:10358000909176050E94AB1D2BE833E04BE250E0B2
:103590000E94F1130FC090928805809287058CE2FB
:1035A00090E090938A0580938905B5018BE795E0BB
:1035B0000E94EF13909288058092870584E590E041
:1035C00090938A0580938905C0907705D0907805FF
:1035D000E0907905F0907A05A7019601C701B60140
:1035E0000E94C51E882319F062E973E01FC0D7014D
:1035F000C601BF7789879A87AB87BC872FEF3FEFDC
:103600004FE75FE7BC01CD010E94C51E811113C0C9
:103610002FEF3FEF4FE75FE769857A858B859C85C4
:103620000E942E1C18163CF466E973E08BE795E0C7
:103630000E94491389C02FEF3FEF4FE75FE4C701B6
:10364000B6010E94C01E18161CF46AE973E0EECFA2
:103650002FEF3FEF4FE75FECC701B6010E942E1C32
:1036600087FDF3CF20E030E0A901C701B6010E9439
:103670002E1C87FF09C06DE28BE795E00E94421384
:10368000F7FAF094F7F8F0942AE037ED43EA5BE3B9
:10369000C701B6010E94AC1D69877A878B879C871A
:1036A0000E94911E6B017C010E94331C9B01AC01A6
:1036B00069857A858B859C850E94AB1D69877A8791
:1036C0008B879C872AE0B701A6018BE795E00E94D3
:1036D00070136EE28BE795E00E94421320E030E029
:1036E00040E251E469857A858B859C850E94941C13
:1036F00069877A878B879C870E94911E6B01E12CDA
:10370000F12C2AE0B701A6018BE795E00E94701327
:10371000C701B6010E94331C9B01AC0169857A8503
:103720008B859C850E94AB1D20E030E040E251E497
:103730000E94941C0E94911EAB0160E070E02AE0A0
:103740008BE795E00E9470134FE050E060E770E077
:103750008FE090E00E9411120E948F110E94DD0301
:10376000E5CB00E010E0EE24E394F12C4FCEE2E84C
:10377000F4E01382128288EE93E0A0E0B0E084834C
:103780009583A683B78324E133E03183208325EC3E
:1037900030E03587248724EC30E03787268720EC1B
:1037A00030E0318B208B21EC30E0338B228B22EC0C
:1037B00030E0358B248B26EC30E0378B268B118E56
:1037C000128E138E148EEFE1F5E0168217821086AA
:1037D0001186128613861486158616861786108A19
:1037E000118A128A138A148A158AE7E6F5E0138291
:1037F000128284839583A683B78386E293E09183C4
:103800008083EBE7F5E01382128220E830E0358315
:10381000248380E290E09783868331872087938793
:103820008287158A158614861786168681E0848B12
:103830002FEF3FEF338B228B318B208B868B178AB8
:10384000118E108E88E393E0918380838FEF848FB5
:1038500080A3868F858F84E0878F08950E94701CD7
:1038600008F481E00895E89409C097FB3EF4909530
:103870008095709561957F4F8F4F9F4F9923A9F049
:10388000F92F96E9BB279395F695879577956795D8
:10389000B795F111F8CFFAF4BB0F11F460FF1BC01C
:1038A0006F5F7F4F8F4F9F4F16C0882311F096E9AF
:1038B00011C0772321F09EE8872F762F05C066235D
:1038C00071F096E8862F70E060E02AF09A95660F16
:1038D000771F881FDAF7880F9695879597F90895CF
:1038E000990F0008550FAA0BE0E8FEEF1616170611
:1038F000E807F907C0F012161306E407F50798F079
:10390000621B730B840B950B39F40A2661F0232B91
:10391000242B252B21F408950A2609F4A140A6950D
:103920008FEF811D811D08950E94A71C0C94181D06
:103930000E940A1D38F00E94111D20F0952311F0FD
:103940000C94011D0C94071D11240C944C1D0E9415
:10395000291D70F3959FC1F3950F50E0551F629F8D
:10396000F001729FBB27F00DB11D639FAA27F00DD8
:10397000B11DAA1F649F6627B00DA11D661F829FFF
:103980002227B00DA11D621F739FB00DA11D621FE4
:10399000839FA00D611D221F749F3327A00D611D01
:1039A000231F849F600D211D822F762F6A2F1124E3
:1039B0009F5750409AF0F1F088234AF0EE0FFF1F16
:1039C000BB1F661F771F881F91505040A9F79E3F6D
:1039D000510580F00C94011D0C944C1D5F3FE4F3E5
:1039E000983ED4F3869577956795B795F795E795C3
:1039F0009F5FC1F7FE2B880F911D9695879597F9CC
:103A0000089597F99F6780E870E060E008959FEF60
:103A100080EC089500240A94161617061806090665
:103A2000089500240A941216130614060506089534
:103A3000092E0394000C11F4882352F0BB0F40F4BC
:103A4000BF2B11F460FF04C06F5F7F4F8F4F9F4FFC
:103A5000089557FD9058440F551F59F05F3F71F07E
:103A60004795880F97FB991F61F09F3F79F08795E5
:103A70000895121613061406551FF2CF4695F1DF6E
:103A800008C0161617061806991FF1CF86957105FE
:103A9000610508940895E894BB2766277727CB0132
:103AA00097F90895A1E21A2EAA1BBB1BFD010DC0B8
:103AB000AA1FBB1FEE1FFF1FA217B307E407F507DE
:103AC00020F0A21BB30BE40BF50B661F771F881FBA
:103AD000991F1A9469F760957095809590959B0150
:103AE000AC01BD01CF0108952F923F924F925F929A
:103AF0006F927F928F929F92AF92BF92CF92DF92FE
:103B0000EF92FF920F931F93CF93DF93CDB7DEB762
:103B1000CA1BDB0B0FB6F894DEBF0FBECDBF0994F6
:103B20002A88398848885F846E847D848C849B844D
:103B3000AA84B984C884DF80EE80FD800C811B815B
:103B4000AA81B981CE0FD11D0FB6F894DEBF0FBE8A
:103B5000CDBFED0108955058BB27AA270E94C31D71
:103B60000C94181D0E940A1D38F00E94111D20F0AF
:103B700039F49F3F19F426F40C94071D0EF4E095D8
:103B8000E7FB0C94011DE92F0E94291D58F3BA1779
:103B9000620773078407950720F079F4A6F50C9463
:103BA0004B1D0EF4E0950B2EBA2FA02D0B01B90181
:103BB00090010C01CA01A0011124FF27591B99F0A3
:103BC000593F50F4503E68F11A16F040A22F232FAF
:103BD000342F4427585FF3CF469537952795A795FF
:103BE000F0405395C9F77EF41F16BA0B620B730BA6
:103BF000840BBAF09150A1F0FF0FBB1F661F771F17
:103C0000881FC2F70EC0BA0F621F731F841F48F4CB
:103C1000879577956795B795F7959E3F08F0B0CF54
:103C20009395880F08F09927EE0F9795879508953B
:103C30000E942C1E0C94181D0E94111D58F00E9409
:103C40000A1D40F029F45F3F29F00C94011D511129
:103C50000C944C1D0C94071D0E94291D68F3992398
:103C6000B1F3552391F3951B550BBB27AA27621778
:103C70007307840738F09F5F5F4F220F331F441F85
:103C8000AA1FA9F335D00E2E3AF0E0E832D09150B9
:103C90005040E695001CCAF72BD0FE2F29D0660FA6
:103CA000771F881FBB1F261737074807AB07B0E8E9
:103CB00009F0BB0B802DBF01FF2793585F4F3AF0EF
:103CC0009E3F510578F00C94011D0C944C1D5F3FF4
:103CD000E4F3983ED4F3869577956795B795F79575
:103CE0009F5FC9F7880F911D9695879597F908955D
:103CF000E1E0660F771F881FBB1F621773078407F9
:103D0000BA0720F0621B730B840BBA0BEE1F88F707
:103D1000E09508950E94911E6894B1110C944C1D79
:103D200008950E94311D88F09F5798F0B92F992768
:103D3000B751B0F0E1F0660F771F881F991F1AF096
:103D4000BA95C9F714C0B13091F00E944B1DB1E093
:103D500008950C944B1D672F782F8827B85F39F092
:103D6000B93FCCF3869577956795B395D9F73EF42F
:103D700090958095709561957F4F8F4F9F4F0895D7
:103D80000E94701C08F48FEF08950E94701C880B2D
:103D9000990B089597FB072E16F4009407D077FD32
:103DA00009D00E94DE1E07FC05D03EF49095819557
:103DB0009F4F0895709561957F4F0895AA1BBB1B77
:103DC00051E107C0AA1FBB1FA617B70710F0A61B1B
:103DD000B70B881F991F5A95A9F780959095BC013C
:103DE000CD010895EE0FFF1F0590F491E02D099489
:103DF00081E090E0F8940C94A521FB01DC01019096
:103E00000D920020E1F70895AEE0B0E0EAE0FFE1B6
:103E10000C94821D0D891E8986E08C831A83098388
:103E20008FEF9FE79E838D83AE01475E5F4F6F8963
:103E3000788DCE0101960E94271F2F813885F801C9
:103E4000E20FF31F10822E96E4E00C949E1DACE06E
:103E5000B0E0EDE2FFE10C94741D7C016B018A017E
:103E6000FC0117821682838181FFBDC1CE010196BC
:103E70004C01F7019381F60193FD859193FF8191A8
:103E80006F01882309F4ABC1853239F493FD859124
:103E900093FF81916F01853229F4B70190E00E9470
:103EA0000F21E7CF512C312C20E02032A0F48B32AF
:103EB00069F030F4803259F0833269F420612CC00B
:103EC0008D3239F0803339F4216026C022602460BD
:103ED00023C0286021C027FD27C030ED380F3A30BD
:103EE00078F426FF06C0FAE05F9E300D1124532EB1
:103EF00013C08AE0389E300D1124332E20620CC08E
:103F00008E3221F426FD6BC1206406C08C3611F47C
:103F1000206802C0883641F4F60193FD859193FF35
:103F200081916F018111C1CF982F9F7D955493305E
:103F300028F40C5F1F4FFFE3F9830DC0833631F087
:103F4000833771F0833509F05BC022C0F8018081AE
:103F500089830E5F1F4F44244394512C540115C094
:103F60003801F2E06F0E711CF801A080B18026FFCD
:103F700003C0652D70E002C06FEF7FEFC5012C8795
:103F80000E9404212C0183012C852F77222E17C03B
:103F90003801F2E06F0E711CF801A080B18026FF9D
:103FA00003C0652D70E002C06FEF7FEFC5012C8765
:103FB0000E94F9202C012C852068222E830123FCED
:103FC0001BC0832D90E048165906B0F4B70180E27B
:103FD00090E00E940F213A94F4CFF50127FC8591DF
:103FE00027FE81915F01B70190E00E940F213110FF
:103FF0003A94F1E04F1A51084114510471F7E5C0A9
:10400000843611F0893639F5F80127FF07C0608141
:104010007181828193810C5F1F4F08C06081718123
:10402000072E000C880B990B0E5F1F4F2F76722EF8
:1040300097FF09C090958095709561957F4F8F4F40
:104040009F4F2068722E2AE030E0A4010E94472191
:10405000A82EA81844C0853729F42F7EB22E2AE056
:1040600030E025C0F22FF97FBF2E8F36C1F018F453
:10407000883579F0B4C0803719F0883721F0AFC0A7
:104080002F2F2061B22EB4FE0DC08B2D8460B82E70
:1040900009C024FF0AC09F2F9660B92E06C028E0F1
:1040A00030E005C020E130E002C020E132E0F8015C
:1040B000B7FE07C060817181828193810C5F1F4FC1
:1040C00006C06081718180E090E00E5F1F4FA40107
:1040D0000E944721A82EA818FB2DFF777F2E76FE81
:1040E0000BC0372D3E7FA51450F474FE0AC072FC3D
:1040F00008C0372D3E7E05C0BA2C372D03C0BA2C20
:1041000001C0B52C34FF0DC0FE01EA0DF11D808108
:10411000803311F4397E09C032FF06C0B394B394E2
:1041200004C0832F867809F0B39433FD13C030FFA9
:1041300006C05A2CB31418F4530C5B18B32CB314E8
:1041400068F4B70180E290E03C870E940F21B394AD
:104150003C85F5CFB31410F43B1801C0312C34FF6B
:1041600012C0B70180E390E03C870E940F213C859C
:1041700032FF17C031FD03C088E790E002C088E538
:1041800090E0B7010CC0832F867859F031FF02C050
:104190008BE201C080E237FD8DE2B70190E00E9422
:1041A0000F21A51438F4B70180E390E00E940F219D
:1041B0005A94F7CFAA94F401EA0DF11D8081B7015A
:1041C00090E00E940F21A110F5CF332009F451CEC9
:1041D000B70180E290E00E940F213A94F6CFF701F8
:1041E0008681978102C08FEF9FEF2C96E2E10C94BD
:1041F000901DFC010590615070400110D8F780952A
:1042000090958E0F9F1F0895FC01615070400190A2
:104210000110D8F7809590958E0F9F1F08950F93EA
:104220001F93CF93DF93FB01238121FD03C08FEF09
:104230009FEF28C022FF16C0468157812481358117
:104240004217530744F4A081B1819D012F5F3F4F76
:10425000318320838C93268137812F5F3F4F3783B3
:10426000268310C0EB01092F182F0084F185E02D63
:104270000995892BE1F68E819F8101969F838E831C
:10428000812F902FDF91CF911F910F910895FA0107
:10429000AA27283051F1203181F1E8946F936E7F85
:1042A0006E5F7F4F8F4F9F4FAF4FB1E03ED0B4E076
:1042B0003CD0670F781F891F9A1FA11D680F791FB7
:1042C0008A1F911DA11D6A0F711D811D911DA11DC8
:1042D00020D009F468943F912AE0269F11243019D8
:1042E000305D3193DEF6CF010895462F4770405D73
:1042F0004193B3E00FD0C9F7F6CF462F4F70405D22
:104300004A3318F0495D31FD4052419302D0A9F77C
:10431000EACFB4E0A6959795879577956795BA9576
:10432000C9F700976105710508959B01AC010A2E3C
:1043300006945795479537952795BA95C9F7620F13
:0E434000731F841F951FA01D0895F894FFCFD2
:10434E00000000000000000000000000000000005F
:10435E00000000000000000000000000000000004F
:10436E00000000000000000000000000000000003F
:10437E0000000000000000000000000000000080AF
:10438E00808000000000000000000000000000001F
:10439E00008080C0C000000000000000000000008F
:1043AE0000000000000000000000000000000000FF
:1043BE0000000000000000000000000000000000EF
:1043CE0000000000000000000000000000000000DF
:1043DE000000000080C0E0F0F8FCF8E000000000F3
:1043EE00000000000000000000000000008080803F
:1043FE00808000808000000000808080808000FF30
:10440E00FFFF0000000080808080000080800000A0
:10441E0080FFFF8080008080008080808000808010
:10442E000000000000808000008C8E84000080F868
:10443E00F8F88000000000000000000000000000FE
:10444E00F0F0F0F0F0F0F0F0F0F0F0F0E0E0C0801E
:10445E0000E0FCFEFFFFFF7FFFFFFFFFFF000000FD
:10446E000000000000000000000000FEFFC7010178
:10447E00010183FFFF00007CFEC70101010183FFE4
:10448E00FFFF0038FEC78301010183C7FFFF000055
:10449E0001FFFF010100FFFF0701010100007FFF87
:1044AE0080000000FFFF7F0000FFFFFF000001FF04
:1044BE00FFFF0100000000000000000000000000EF
:1044CE00030F3F7F7FFFFFFFFFFFFFFFE7C7C78F92
:1044DE008F9FBFFFFFC3C0F0FFFFFFFFFFFCFCFC81
:1044EE00FCFCFCFCFCF8F8F0F0E0C0000103030358
:1044FE000303010303000000000103030303010192
:10450E000301000000010303030301010303000084
:10451E000003030000000303000000000000000180
:10452E000303030303010000000103010000000365
:10453E000301000000000000000000000000000069
:10454E00000103070F1F3F7F0080C0E0F0F8FCFE64
:10455E0000000000740390100C03BB033D031B030B
:10456E002F0300000000980D680DC80D3C0D600D66
:10457E004C0D3D0D000000008C099010C80DC70DAC
:10458E00C2065F0C580C300C4C0C400C600C2F0CFF
:10459E00610760070C046605560B380BC10A620AE8
:1045AE00564D4450565F317C315F564D4450560D3A
:1045BE000A007C00534554007265736574696E671A
:1045CE002E2E2E0043524345525200414354554124
:1045DE004C006E616E00696E66006F7666005F5607
:1045EE004D445045004F0046460020256400564D70
:0A45FE004450455F003A323A0000D5
:107800000C94343C0C94513C0C94513C0C94513CE1
:107810000C94513C0C94513C0C94513C0C94513CB4
:107820000C94513C0C94513C0C94513C0C94513CA4
:107830000C94513C0C94513C0C94513C0C94513C94
:107840000C94513C0C94513C0C94513C0C94513C84
:107850000C94513C0C94513C0C94513C0C94513C74
:107860000C94513C0C94513C11241FBECFEFD8E036
:10787000DEBFCDBF11E0A0E0B1E0ECE9FFE702C060
:1078800005900D92A230B107D9F712E0A2E0B1E065
:1078900001C01D92AD30B107E1F70E942D3D0C945F
:1078A000CC3F0C94003C982F959595959595959582
:1078B000905D8F708A307CF0282F295A8091C0000B
:1078C00085FFFCCF9093C6008091C00085FFFCCF60
:1078D0002093C6000895282F205DF0CF982F809127
:1078E000C00085FFFCCF9093C6000895EF92FF92F1
:1078F0000F931F93EE24FF2487018091C00087FD22
:1079000017C00894E11CF11C011D111D81E4E8164B
:1079100082E4F8068FE0080780E0180770F3E09132
:107920000401F091050109958091C00087FFE9CF1E
:107930008091C6001F910F91FF90EF9008950E94D3
:10794000763C982F8091C00085FFFCCF9093C600B5
:1079500091362CF490330CF09053892F089597555D
:10796000892F08951F930E949F3C182F0E949F3CCF
:107970001295107F810F1F9108951F93182F882350
:1079800021F00E94763C1150E1F71F9108951F935A
:10799000182F0E94763C803249F0809103018F5F5E
:1079A000809303018530C1F01F9108958091C0003C
:1079B00085FFFCCF84E18093C6008091C00085FFE5
:1079C000FCCF1093C6008091C00085FFFCCF80E102
:1079D0008093C6001F910895E0910401F091050184
:1079E00009951F9108950E94763C803241F0809164
:1079F00003018F5F80930301853081F008958091AA
:107A0000C00085FFFCCF84E18093C6008091C00058
:107A100085FFFCCF80E18093C6000895E0910401CA
:107A2000F09105010995089540E951E08823A1F0FE
:107A30002D9A28EE33E0FA013197F1F721503040CA
:107A4000D1F72D9828EE33E0FA013197F1F7215064
:107A50003040D1F7815061F708953F924F925F9285
:107A60006F927F928F929F92AF92BF92CF92DF924E
:107A7000EF92FF920F931F93CF93DF93000080E16B
:107A80008093C4001092C50088E18093C10086E015
:107A90008093C2005098589A259A81E00E94143D24
:107AA00024E1F22E9EE1E92E85E9D82E0FE0C02ECA
:107AB00010E1B12EAA24A394B1E49B2EA6E58A2E50
:107AC000F2E57F2EE0E26E2E79E4572E63E5462E36
:107AD00050E5352E0E94763C8033B1F18133B9F107
:107AE000803409F46FC0813409F476C0823409F41B
:107AF00085C0853409F488C0803531F1823521F1A3
:107B0000813511F1853509F485C0863509F48DC0BC
:107B1000843609F496C0843709F403C1853709F423
:107B200072C1863709F466C0809103018F5F80932C
:107B30000301853079F6E0910401F0910501099582
:107B40000E94763C803351F60E94F33CC3CF0E94E2
:107B5000763C803249F78091C00085FFFCCFF092DF
:107B6000C6008091C00085FFFCCF9092C600809136
:107B7000C00085FFFCCF8092C6008091C00085FFC9
:107B8000FCCF7092C6008091C00085FFFCCF609250
:107B9000C6008091C00085FFFCCF5092C600809146
:107BA000C00085FFFCCF4092C6008091C00085FFD9
:107BB000FCCF3092C6008091C00085FFFCCFB09210
:107BC000C60088CF0E94763C863808F4BDCF0E945C
:107BD000763C0E94F33C7ECF0E94763C803809F4CC
:107BE0009CC0813809F40BC1823809F43CC1883942
:107BF00009F48FC080E00E94C73C6CCF84E10E94F2
:107C0000BD3C0E94F33C66CF85E00E94BD3C0E94D3
:107C1000F33C60CF0E94763C809306010E94763C44
:107C2000809307010E94F33C55CF0E94763C80333D
:107C300009F41DC183E00E94BD3C80E00E94C73C66
:107C400049CF0E94763C809309020E94763C809343
:107C5000080280910C028E7F80930C020E94763C79
:107C6000853409F415C18091080290910902892B8D
:107C700089F000E010E00E94763CF801E85FFE4FDA
:107C800080830F5F1F4F80910802909109020817AF
:107C9000190788F30E94763C803209F045CF809125
:107CA0000C0280FF01C16091060170910701660F0F
:107CB000771F7093070160930601A0910802B091AD
:107CC00009021097C9F0E8E0F1E09B01AD014E0F09
:107CD0005F1FF999FECF32BD21BD819180BDFA9A17
:107CE000F99A2F5F3F4FE417F50799F76A0F7B1F4B
:107CF00070930701609306018091C00085FFFCCF5F
:107D0000F092C6008091C00085FFFCCFB092C60003
:107D1000E1CE83E00E94C73CDDCE82E00E94C73CFA
:107D2000D9CE0E94763C809309020E94763C8093D3
:107D300008028091060190910701880F991F909386
:107D40000701809306010E94763C853409F4A6C0A1
:107D500080910C028E7F80930C020E94763C8032D0
:107D600009F0B8CE8091C00085FFFCCFF092C6002C
:107D7000609108027091090261157105B9F140E046
:107D800050E080910C02A82FA170B82FB27011C0E2
:107D9000BB2309F45CC0E0910601F0910701319624
:107DA000F0930701E09306014F5F5F4F46175707B7
:107DB000E8F4AA2369F3F999FECF209106013091E6
:107DC000070132BD21BDF89A90B58091C00085FFB2
:107DD000FCCF9093C6002F5F3F4F30930701209355
:107DE00006014F5F5F4F4617570718F38091C00099
:107DF00085FDE5CE8091C00085FFF8CFE0CE81E023
:107E00000E94C73C67CE0E94763C803209F08CCE3F
:107E10008091C00085FFFCCFF092C6008091C00029
:107E200085FFFCCFE092C6008091C00085FFFCCFAB
:107E3000D092C6008091C00085FFFCCFC092C600E2
:107E40008091C00085FFFCCFB092C60043CEE09188
:107E50000601F091070194918091C00085FFFCCF4D
:107E60009093C6009CCF80E10E94C73C33CE0E9415
:107E7000763C0E94763C182F0E94763C112309F430
:107E800083C0113009F484C08FE00E94C73C22CE29
:107E900080910C02816080930C02E5CE80910C02EF
:107EA000816080930C0259CF809107018823880F4D
:107EB000880B8A2180930B02809106019091070123
:107EC000880F991F90930701809306018091080203
:107ED00080FF09C080910802909109020196909359
:107EE000090280930802F894F999FECF1127E091D6
:107EF0000601F0910701C8E0D1E08091080290915D
:107F00000902103091F40091570001700130D9F34B
:107F100003E000935700E89500915700017001308D
:107F2000D9F301E100935700E89509901990009169
:107F3000570001700130D9F301E000935700E89534
:107F40001395103498F011270091570001700130FB
:107F5000D9F305E000935700E895009157000170B0
:107F60000130D9F301E100935700E895329602976A
:107F700009F0C7CF103011F00296E5CF112480919F
:107F8000C00085FFB9CEBCCE8EE10E94C73CA2CD19
:0C7F900085E90E94C73C9ECDF894FFCF0D
:027F9C00800063
:040000030000780081
:00000001FF