:100000000C94ED020C9415030C9415030C94150339
:100010000C9415030C9415030C9415030C94150300
:100020000C9415030C9415030C9415030C941503F0
:100030000C9415030C9415030C9415030C941503E0
:100040000C94C00D0C9415030C947F100C94591053
:100050000C9415030C9415030C9415030C941503C0
:100060000C940A0E0C94150300000000003E5B4F38
:100070005B3E3E6B4F6B3E1C3E7C3E1C183C7E3C08
:10008000181C577D571C1C5E7F5E1C00183C180016
:10009000FFE7C3E7FF0018241800FFE7DBE7FF30A6
:1000A000483A060E2629792926407F050507407F14
:1000B00005253F5A3CE73C5A7F3E1C1C08081C1C87
:1000C0003E7F14227F22145F5F005F5F06097F017D
:1000D0007F006689956A606060606094A2FFA29468
:1000E00008047E040810207E201008082A1C080836
:1000F0001C2A08081E101010100C1E0C1E0C303884
:100100003E3830060E3E0E06000000000000005F84
:1001100000000007000700147F147F14242A7F2AA0
:100120001223130864623649562050000807030062
:10013000001C2241000041221C002A1C7F1C2A08AE
:10014000083E080800807030000808080808000011
:1001500060600020100804023E5149453E00427F85
:10016000400072494949462141494D331814127FD4
:100170001027454545393C4A494931412111090774
:100180003649494936464949291E000014000000F5
:1001900040340000000814224114141414140041C7
:1001A00022140802015909063E415D594E7C121184
:1001B000127C7F494949363E414141227F414141BC
:1001C0003E7F494949417F090909013E4141517337
:1001D0007F0808087F00417F41002040413F017FA8
:1001E000081422417F404040407F021C027F7F0470
:1001F00008107F3E4141413E7F090909063E4151B9
:10020000215E7F09192946264949493203017F01A8
:10021000033F4040403F1F2040201F3F4038403FA9
:10022000631408146303047804036159494D4300BF
:100230007F4141410204081020004141417F0402F6
:10024000010204404040404000030708002054548D
:1002500078407F284444383844444428384444286B
:100260007F385454541800087E090218A4A49C78BE
:100270007F0804047800447D40002040403D007F1A
:100280001028440000417F40007C047804787C08FA
:100290000404783844444438FC18242418182424CE
:1002A00018FC7C08040408485454542404043F44B3
:1002B000243C4040207C1C2040201C3C4030403CE2
:1002C00044281028444C9090907C4464544C440042
:1002D00008364100000077000000413608000201A6
:1002E0000204023C2623263C1EA1A161123A404092
:1002F000207A38545455592155557941225454780F
:1003000042215554784020545579400C1E527212A7
:100310003955555559395454545939555454580030
:1003200000457C410002457D420001457C407D1234
:1003300011127DF0282528F07C5455450020545496
:100340007C547C0A097F4932494949323A44444441
:100350003A324A4848303A4141217A3A424020787C
:10036000009DA0A07D3D4242423D3D4040403D3C7D
:1003700024FF2424487E4943662B2FFC2F2BFF09A2
:1003800029F620C0887E0903205454794100004496
:100390007D413048484A32384040227A007A0A0A81
:1003A000727D0D19317D2629292F282629292926F4
:1003B00030484D4020380808080808080808382F39
:1003C00010C8ACBA2F102834FA00007B00000814C3
:1003D0002A142222142A14085500550055AA55AA99
:1003E00055AAFF55FF55FF000000FF00101010FF39
:1003F00000141414FF001010FF00FF1010F010F094
:10040000141414FC001414F700FF0000FF00FF1484
:1004100014F404FC141417101F10101F101F1414D0
:10042000141F00101010F0000000001F101010101A
:100430001F10101010F010000000FF10101010100E
:1004400010101010FF10000000FF140000FF00FF4C
:1004500000001F10170000FC04F4141417101714E8
:1004600014F404F40000FF00F7141414141414140A
:10047000F700F7141414171410101F101F1414147D
:10048000F4141010F010F000001F101F0000001FE7
:1004900014000000FC140000F010F01010FF10FF1A
:1004A000141414FF141010101F00000000F010FFAF
:1004B000FFFFFFFFF0F0F0F0F0FFFFFF0000000093
:1004C00000FFFF0F0F0F0F0F3844443844FC4A4A17
:1004D0004A347E02020606027E027E0263554941CC
:1004E000633844443C04407E201E2006027E020203
:1004F00099A5E7A5991C2A492A1C4C7201724C3017
:100500004A4D4D303048784830BC625A463D3E49ED
:100510004949007E0101017E2A2A2A2A2A44445F91
:10052000444440514A444040444A51400000FF0185
:1005300003E080FF000008086B6B08361236243693
:10054000060F090F060000181800000010100030F8
:1005500040FF0101001F01011E00191D1712003C80
:100560003C3C3C00000000000000000800020100CC
:10057000000304070000000000000000000000006D
:10058000250028002B0000000000240027002A007E
:100590000404040404040404020202020202030329
:1005A0000303030301020408102040800102040831
:1005B000102001020408102000C001C001C003E0A7
:1005C000F3E0FEF87EFF339F1FFC0D701BA03FE0A1
:1005D0003FF07CF0707000304D1611241FBECFEF3D
:1005E000D8E0DEBFCDBF13E0A0E0B1E0ECEFFEE26B
:1005F00002C005900D92A038B107D9F724E0A0E819
:10060000B3E001C01D92A53FB207E1F712E0CDEEC5
:10061000D2E004C02197FE010E947117CC3ED107A1
:10062000C9F70E94BC120C947C170C940000FC01CA
:10063000918D828D981731F0828DE80FF11D858D97
:1006400090E008958FEF9FEF0895FC01918D228D2A
:10065000892F90E0805C9F4F821B91098F739927AF
:10066000089580E090E0892B29F00E94E60F811127
:100670000C94000008953FB7F8948091CC039091BA
:10068000CD03A091CE03B091CF0326B5A89B05C0A2
:100690002F3F19F00196A11DB11D3FBFBA2FA92F01
:1006A000982F8827820F911DA11DB11DBC01CD017E
:1006B00042E0660F771F881F991F4A95D1F708956A
:1006C0000F931F93CF93DF93DC0155968C91559731
:1006D000823071F0833009F1813009F08CC01496BA
:1006E000ED91FC911597E41BF50BE21BF30B20C079
:1006F0001496ED91FC911597CF01861B970BBC01C9
:10070000615071091696ED91FC911797CF01841BEA
:10071000950BAC01421B530B6EC01696ED91FC91EC
:100720001797CF01861B970BBC0161507109FA0125
:1007300077FD1BC116968D919C91179768177907C5
:100740000CF013C1F7FF04C02E0F3F1FE0E0F0E0F4
:1007500014968D919C911597AF01420F531F8417EA
:1007600095071CF49C012E1B3F0B121613060CF070
:10077000FCC0CB0177FD079643E0959587954A9598
:10078000E1F79695982F882797958795E80FF91F99
:10079000E050FF4F6770772781E090E001C0880F3D
:1007A0006A95EAF7482F0130110541F088F00230D0
:1007B000110509F0DAC02E0F3F1F15C02E0F3F1F85
:1007C000E217F30709F4D1C08081842B8193F8CF1D
:1007D00080952E0F3F1FE217F30709F4C6C09081E2
:1007E00098239193F8CFE217F30709F4BEC08081F4
:1007F00084278193F8CF77FDB8C014968D919C9192
:100800001597681779070CF0B0C057FF04C0240F84
:10081000351F40E050E016968D919C911797FA0194
:10082000E20FF31F8E179F071CF49C01241B350B4E
:10083000121613060CF099C0A22F842F8695869568
:10084000869590E8899F600D711D1124FB01E05091
:10085000FF4F4770A9F198E0941B492F50E0EA013F
:10086000C45FDC4F8881291790F4421B51092FEF98
:1008700030E002C0359527954A95E2F78223013092
:10088000110541F068F00230110589F06EC00130A9
:10089000110519F42081822B0CC00130110520F4C0
:1008A00080952081822305C00230110531F420811A
:1008B00082278083A91708F458C0A91BE058FF4F6E
:1008C000A83048F10230110559F4EF018A2F9881C0
:1008D00090959883C058DF4F88508830C0F730C05B
:1008E00081E00130110509F080E08195EF019A2F38
:1008F0008883C058DF4F98509830D0F788EF8A0F20
:1009000086958695869590E8899FE00DF11D1124C6
:10091000E058FF4FA770AA2341F1B0E0AC5FBC4F95
:100920008C910130110529F038F002301105D1F019
:100930001CC09081892B18C080959081892314C098
:1009400088EF8A0F86958695869590E8899FE00DB9
:10095000F11D1124E058FF4FA77039F0B0E0AC5FF3
:10096000BC4F8C91908189278083DF91CF911F911B
:100970000F9108950F931F93CF93DF93DC01FB0139
:1009800055968C915597823081F0833019F18130E2
:1009900051F514968D919C911597BC01641B750BB4
:1009A000AB0141505109BF0181C014966D917C91FA
:1009B0001597CB018E1B9F0BFC0116968D919C9178
:1009C0001797BC01641B750BAB0141505109E21B29
:1009D000F30B09C016966D917C9117976E1B7F0BD8
:1009E000621B730B63C057FD1CC116968D919C91C1
:1009F0001797481759070CF014C1F7FF04C02E0FC2
:100A00003F1FE0E0F0E014968D919C911597BF0197
:100A1000620F731F861797071CF49C012E1B3F0B58
:100A2000121613060CF0FDC0CA0157FD079663E0CD
:100A3000959587956A95E1F79695982F88279795CC
:100A40008795E80FF91FE050FF4F4770552781E069
:100A500090E001C0880F4A95EAF7482F0130110550
:100A600041F088F00230110509F0DBC02E0F3F1F66
:100A700015C02E0F3F1FE217F30709F4D2C0808183
:100A8000842B8193F8CF80952E0F3F1FE217F30739
:100A900009F4C7C0908198239193F8CFE217F30728
:100AA00009F4BFC0808184278193F8CF57FDB9C076
:100AB00014968D919C911597481759070CF0B1C069
:100AC00077FF04C0260F371F60E070E016968D9107
:100AD0009C911797FB01E20FF31F8E179F071CF4E1
:100AE0009C01261B370B121613060CF09AC0A22F7E
:100AF000862F86958695869590E8899F400D511D95
:100B00001124FA01E050FF4F6770A9F198E0961B9D
:100B1000492F50E0EA01C45FDC4F8881291790F427
:100B2000421B51092FEF30E002C0359527954A95B9
:100B3000E2F782230130110541F068F0023011051F
:100B400089F06FC00130110519F42081822B0CC08F
:100B50000130110520F480952081822305C00230E8
:100B6000110531F4208182278083A91708F459C028
:100B7000A91BE058FF4FA83048F10230110559F485
:100B8000EF018A2F988190959883C058DF4F885045
:100B90008830C0F731C081E00130110509F080E0F4
:100BA0008195EF019A2F8883C058DF4F9850983075
:100BB000D0F788EF8A0F86958695869560E8869FA0
:100BC000E00DF11D1124E058FF4FA770AA2349F151
:100BD000B0E0AC5FBC4F8C910130110529F038F0CA
:100BE00002301105D9F01DC09081892B03C080957A
:100BF00090818923808315C088EF8A0F869586951A
:100C0000869570E8879FE00DF11D1124E058FF4F95
:100C1000A77039F0B0E0AC5FBC4F8C919081892710
:100C2000E9CFDF91CF911F910F910895FC0177FDDE
:100C30009AC080859185681779070CF094C057FD9C
:100C400092C082859385481759070CF08CC085891E
:100C5000823009F07CC084819581DC01A61BB70B32
:100C6000BD016150710986819781FC01E41BF50B80
:100C7000AF01415051090AC0813041F4848195810E
:100C8000841B950BAB01BC0161507109213031050A
:100C900029F008F122303105E1F10895FA0157FDFC
:100CA0003796A3E0F595E795AA95E1F7F695FE2F1F
:100CB000EE27F795E7956E0F7F1FFB01E050FF4F82
:100CC0004770552781E090E001C0880F4A95EAF708
:100CD0009081892B3AC0FA0157FD379623E0F595AC
:100CE000E7952A95E1F7F695FE2FEE27F795E7951C
:100CF0006E0F7F1FFB01E050FF4F4770552781E0CB
:100D000090E001C0880F4A95EAF780959081892389
:100D10001CC0FA0157FD379683E0F595E7958A9553
:100D2000E1F7F695FE2FEE27F795E7956E0F7F1FFB
:100D3000FB01E050FF4F4770552781E090E001C074
:100D4000880F4A95EAF79081892780830895833038
:100D500009F092CF86819781861B970BBA01AC016F
:100D60004150510993CF08950895FC016370658B3C
:100D70008481958126813781613039F0633029F093
:100D800091878087338722870895318720879387CB
:100D9000828708952F923F924F925F926F927F9237
:100DA0008F929F92AF92BF92CF92DF92EF92FF927B
:100DB0000F931F93CF93DF93CDB7DEB76C970FB62A
:100DC000F894DEBF0FBECDBF9C8F8B8F5B011A01E5
:100DD0001F830E833701C982DC0158964D915C91C7
:100DE00059974115510509F0E5C018968D919C91D0
:100DF0001997681779070CF0CAC11A968D919C91C2
:100E00001B97281639060CF0C2C18C2C912CFB01C3
:100E100036E0C39EE00DF11D1124FB87EA871E1604
:100E20001F060CF0B4C1C40133E0880F991F3A9536
:100E3000E1F79D878C87820D931D181619060CF01B
:100E4000A6C157968C91811103C0203B08F02F5FFB
:100E5000AB8DBC8DED91FC9111970284F385E02D53
:100E6000CD012A8F09952A8DB5E02B9F9001112481
:100E7000F5013596FF87EE87BB82AA822501A9017D
:100E80004A195B09598B488BC10108969B8B8A8B49
:100E9000E889F989E40DF51DE859FF4F9491988789
:100EA00061013D822C82A885A0FF13C0AB8DBC8D53
:100EB000ED91FC91B981B13031F40484F585E02DD8
:100EC0002E813F8116C00684F785E02DEE80FF80DD
:100ED0001AC0EE81FF816E167F06F1F0AB8DBC8DDE
:100EE000ED91FC91B981B13051F40484F585E02D88
:100EF0009301A601B2018B8D9C8D09950DC00684CE
:100F0000F785E02D7301840194014C815D816A8134
:100F10007B818B8D9C8D0995E885E695E887FFEFB1
:100F2000CF1ADF0A2C813D81280D391D3D832C838A
:100F30004A895B89C416D50609F0B5CF5FEF451A1B
:100F4000550A8A819B81880D991D9B838A83AE8572
:100F5000BF854A165B0609F09BCFEE81FF816E16B6
:100F60007F0609F4F2C0EB8DFC8DA081B181F9817F
:100F7000F13079F4B5016B5F7F4F5096ED91FC91A4
:100F80005197830128E030E0A1018B8D9C8D09955C
:100F9000DCC06A857B85681979091E96ED91FC9104
:100FA0001F9773010C851D859401A1018B8D9C8D6C
:100FB0000995CBC0FA01349694913297659174915A
:100FC000291BCB01B7E02B9F800D911D1124FA0145
:100FD000259134913B8B2A8BFC01459154915B8385
:100FE0004A83FC013296C490319654915E873296C2
:100FF00014913196D4908981823058F0612E012E5F
:10100000000C7708AD2D0D2C000CBB0BB987A88701
:1010100004C019861886612C712CAB8DBC8DED91A6
:10102000FC9111970284F385E02DCD010995B981DA
:101030008B2E912C689CC001699C900D789C900D22
:101040001124FC01EA0DFB1DFD87EC871C82712C2D
:10105000612CE12F110FFF0B95012E0F3F1F3B87D6
:101060002A87AC0CB11CA5014E0F5F1F5F8B4E8B06
:10107000C1018D0D911DD7FC9A95998F888F4E8552
:10108000641608F062C0862D90E048855985480FA7
:10109000591F489D9001499D300D589D300D1124D8
:1010A000D901A20DB31DB98BA88BAA84BB844C8433
:1010B0005D84DC80BA85DB1AE88DF98DE80FF91FB5
:1010C000FD8BEC8B8D2D8A0D2E893F89A216B306E0
:1010D000B9F1877061F48A819B810196EA89FB8965
:1010E000AA81BB81EA0FFB1F74909B838A8377FEE2
:1010F00020C0AB8DBC8DED91FC91B981B13061F414
:101100000484F585E02D2E813F814C895D89B501F0
:101110008B8D9C8D09950DC00684F785E02DEE80A2
:10112000FF808401940148895989B2018B8D9C8D7F
:101130000995770CEFEFAE1ABE0A480C591CC2CFC6
:101140003C813C0D3C8363949ACFAB8DBC8DED917B
:10115000FC9111970688F789E02DCD016C960FB6AA
:10116000F894DEBF0FBECDBFDF91CF911F910F91DD
:10117000FF90EF90DF90CF90BF90AF909F908F90B7
:101180007F906F905F904F903F902F9009946C9656
:101190000FB6F894DEBF0FBECDBFDF91CF911F9188
:1011A0000F91FF90EF90DF90CF90BF90AF909F9006
:1011B0008F907F906F905F904F903F902F90089509
:1011C000AF92BF92CF92EF92FF920F931F93CF9364
:1011D000DF93EC01262F888D998D009709F040C090
:1011E0006A3059F41D861C862C898E859F8538E0CF
:1011F000239F800D911D112441C06D3009F4AAC0B8
:101200008E898823C1F03C898C859D8546E0349F7A
:10121000800D911D112448855985481759075CF4A4
:101220001D861C868E859F8548E0349F800D911D0C
:1012300011249F878E87EA88FB88088919894E8543
:101240005F856C857D85CC88CE010E94CA062C897D
:101250008C859D8536E0239F800D911D112442C011
:101260006A3079F41D861C862C89FC013696E4913F
:101270008E859F852E9F800D911D11249F878E87BF
:1012800069C06D3009F466C0FC013496349163176F
:1012900008F460C03196E491E61708F45BC0FC01E5
:1012A0003296A590B490462F50E0431B510937E089
:1012B000349FB001359F700D1124A60EB71EF501A5
:1012C000329634913196E491332311F0E1110DC03F
:1012D000F5013496E4912C898C859D85E29F800DE3
:1012E000911D11249D878C8735C0F5013596449159
:1012F0005E89552311F16C89E32FF0E0E40FF11DB5
:1013000047FDFA956E9FD0016F9FB00D11244C855B
:101310005D854A0F5B1FE885F985E417F5076CF4D6
:101320001D861C86FC013696E4918E859F856E9FF6
:10133000800D911D11249F878E87EA88FB8808897C
:1013400019894E855F856C857D85CC88CE010E948C
:10135000CA06BECF81E090E0DF91CF911F910F913F
:10136000FF90EF90CF90BF90AF9008956F927F92D3
:101370008F929F92AF92BF92CF92DF92EF92FF92A5
:101380000F931F93CF93DF93EC014B015A01690137
:101390003801E881F9810284F385E02D0995E8811F
:1013A000F9810288F389E02D87019601A501B40136
:1013B000CE010995E881F981A501460D571D4150DF
:1013C00051090288F389E02D9601B401CE010995F7
:1013D000E881F9810088F189E02D9301A501B4012C
:1013E000CE010995E881F981C80CD91CB60161507C
:1013F00071090088F189E02D9301A501CE010995BD
:10140000E881F9810688F789E02DCE01DF91CF913F
:101410001F910F91FF90EF90DF90CF90BF90AF9012
:101420009F908F907F906F900994CF92DF92EF9270
:10143000FF920F931F93CF93DF9300D000D000D083
:10144000CDB7DEB76C01DC01ED91FC91621773073B
:1014500089F4041715072CF4942F852FA801092F60
:10146000182F041B150B98012F5F3F4F048CF58D2F
:10147000E02D12C04017510709F5261737072CF445
:10148000962F872FB901292F382F261B370B2F5F57
:101490003F4F068CF78DE02D8701C60109952696F2
:1014A0000FB6F894DEBF0FBECDBFDF91CF911F9175
:1014B0000F91FF90EF90DF90CF9008950284F38515
:1014C000E02D2D833E834B835C8369837A8309956A
:1014D000D601ED91FC910488F589E02D2D813E81A6
:1014E0004B815C8169817A81C6010995D601ED91B4
:1014F000FC910688F789E02DC60126960FB6F89470
:10150000DEBF0FBECDBFDF91CF911F910F91FF9036
:10151000EF90DF90CF900994EF92FF920F931F937B
:10152000DC01ED91FC9111971A960D911C911B977E
:1015300018962D913C91199700A0F1A1E02D7B0107
:1015400040E050E060E070E009951F910F91FF903E
:10155000EF9008954F925F926F927F928F929F9239
:10156000AF92BF92CF92DF92EF92FF920F931F93B1
:10157000CF93DF9300D0CDB7DEB76C015A013901AC
:101580004801DC01ED91FC910284F385E02D698333
:101590007A8309956981462E7A81572E640C751CD1
:1015A000D601ED91FC91461457046CF40088F18942
:1015B000E02D87019401A501B201C6010995BFEF95
:1015C0004B1A5B0AEDCF0688F789E02DC6010F9014
:1015D0000F90DF91CF911F910F91FF90EF90DF90CF
:1015E000CF90BF90AF909F908F907F906F905F90C3
:1015F0004F900994AF92BF92CF92DF92EF92FF92F9
:101600000F931F93CF93DF9300D000D0CDB7DEB7F9
:101610005C016901DC01ED91FC910284F385E02D10
:101620004B835C8369837A830995D501ED91FC91A5
:1016300069817A819B012C0D3D1D2150310904885F
:10164000F589E02D78014B815C818A01C5010995FE
:10165000D501ED91FC910688F789E02DC5010F9029
:101660000F900F900F90DF91CF911F910F91FF90EE
:10167000EF90DF90CF90BF90AF900994AF92BF9260
:10168000CF92DF92EF92FF920F931F93CF93DF934E
:1016900000D000D0CDB7DEB75C016901DC01ED916F
:1016A000FC910284F385E02D4B835C8369837A830C
:1016B0000995D501ED91FC914B815C81C40ED51E3D
:1016C000B1E0CB1AD1080488F589E02D78018601B4
:1016D00069817A819B01C5010995D501ED91FC9144
:1016E0000688F789E02DC5010F900F900F900F909D
:1016F000DF91CF911F910F91FF90EF90DF90CF90EE
:10170000BF90AF9009940895EF92FF920F931F93AB
:10171000DC01ED91FC9100A0F1A1E02D09951F9154
:101720000F91FF90EF9008950F931F93DC01ED91BF
:10173000FC91068CF78DE02D09951F910F9108956E
:101740000F931F93DC01ED91FC91048CF58DE02D3E
:1017500009951F910F910895DC01ED91FC91008492
:10176000F185E02D099408952F923F924F925F9258
:101770006F927F928F929F92AF92BF92CF92DF92A1
:10178000EF92FF920F931F93CF93DF9300D01F929E
:10179000CDB7DEB74C017B836A836A01590117011B
:1017A0009801241B350B37FF03C031952195310972
:1017B000C5014A815B81841B950B97FF03C09195FE
:1017C0008195910951E059838217930714F019828A
:1017D0000BC09A2D8B2D5801092F182F9A818B81C0
:1017E000DB82CA82C92ED82E8A819B81A816B906AF
:1017F0005CF49C2D8D2D6801092F182F9A818B8107
:10180000BB82AA82A92EB82E2501AA81BB814A1AC1
:101810005B0A38016C187D0877FE03C071946194EF
:101820007108720157FE03C0BFEFEB1AFB0AF59473
:10183000E794C016D1061CF00FEF1FEF1FC001E0A8
:1018400010E01CC0D401ED91FC91B9810484F585B0
:10185000E02D9101BB23C1F04A815B81B601C40137
:101860000995E618F708F7FE04C0C00ED11EE40C77
:10187000F51CEA81FB813196FB83EA834A815B8117
:10188000A416B506FCF604C0A6016A817B81E7CFE9
:101890000F900F900F90DF91CF911F910F91FF90BC
:1018A000EF90DF90CF90BF90AF909F908F907F9000
:1018B0006F905F904F903F902F90089585ED8093AB
:1018C000BC008091BC0084FDFCCF1092F903089508
:1018D0004091A203262F30E0240F311D2132310523
:1018E000DCF42091F9032430C9F4FC0180E090E09D
:1018F000861758F43091A2032191DC01A058BC4F07
:10190000A30FB11D2C930196F3CF8091A203680F12
:101910006093A20380E0089581E0089582E0089535
:10192000089581E090E03091D1032091D0033217E7
:1019300010F480E090E0919581959109089580914F
:10194000D1039091D003891730F48F5F8093D10336
:1019500080E090E008958FEF9FEF08958091D0038D
:1019600090E02091D103821B91090895CF92DF92DC
:10197000EF92FF920F931F93CF93DF937C01262F5B
:10198000972F8A018091FA03882391F0C62FD72FD1
:101990006E01C40ED51ECC15DD0571F06991D7011D
:1019A000ED91FC910190F081E02DC7010995F3CFF5
:1019B000642F822F0E94680CC801DF91CF911F9184
:1019C0000F91FF90EF90DF90CF900895CF93DF932A
:1019D0001F92CDB7DEB769832091FA032223D1F09D
:1019E00020911C04203240F021E030E0FC013383E0
:1019F000228380E090E015C08091FB03E82FF0E0A7
:101A0000E450FC4F998190838F5F8093FB03809318
:101A10001C0405C061E0CE0101960E94680C81E0C3
:101A200090E00F90DF91CF910895089580E090E0CD
:101A30000895FC01848DDF01A80FB11DA35ABF4F8B
:101A40002C91848D90E001968F739927848FA689BD
:101A5000B7892C93A089B1898C9180648C93938DE4
:101A6000848D981306C00288F389E02D80818F7DD4
:101A70008083089590E0FC01E859FA4F3491FC010D
:101A8000EC55FA4F2491FC01E057FA4FE491EE2314
:101A900009F43BC0332339F1333091F038F431305D
:101AA000A9F0323001F584B58F7D12C0373091F046
:101AB0003830A1F03430B9F4809180008F7D03C0BC
:101AC000809180008F77809380000DC084B58F77E0
:101AD00084BD09C08091B0008F7703C08091B000B1
:101AE0008F7D8093B000F0E0EE0FFF1FE458FA4FB7
:101AF000A591B4918FB7F894EC91611103C0209532
:101B00002E2301C02E2B2C938FBF08958F929F926E
:101B1000AF92BF92CF92DF92EF92FF926B017C0166
:101B20000E943B034B015C01C114D104E104F104A8
:101B3000F1F00E943B03DC01CB0188199909AA0945
:101B4000BB09883E9340A105B10570F321E0C21A9C
:101B5000D108E108F10888EE880E83E0981EA11CE8
:101B6000B11CC114D104E104F10419F7DDCFFF90D9
:101B7000EF90DF90CF90BF90AF909F908F9008959F
:101B80001F920F920FB60F9211242F933F938F93B2
:101B90009F93AF93BF938091C8039091C903A09185
:101BA000CA03B091CB033091C70323E0230F2D3735
:101BB00020F40196A11DB11D05C026E8230F029651
:101BC000A11DB11D2093C7038093C8039093C9033F
:101BD000A093CA03B093CB038091CC039091CD0323
:101BE000A091CE03B091CF030196A11DB11D8093AA
:101BF000CC039093CD03A093CE03B093CF03BF91BA
:101C0000AF919F918F913F912F910F900FBE0F90A9
:101C10001F9018951F920F920FB60F9211242F93B9
:101C20003F934F935F936F937F938F939F93AF9364
:101C3000BF93EF93FF938091B900887F803609F4BA
:101C40009CC068F5883209F45BC090F4803109F4D7
:101C500054C038F4882309F4F6C0883009F44DC024
:101C6000F6C0883109F44CC0803209F45DC0EFC081
:101C7000803409F468C048F4803309F455C08833CF
:101C800009F0E5C08093F703D8C0803509F44FC050
:101C9000883509F45DC0883409F0D9C0D6C08839C8
:101CA00009F4C7C0A8F4883709F467C038F4883647
:101CB00009F463C0803709F460C0C9C0883809F4EA
:101CC000B8C0803909F45FC0803809F0C0C05BC07B
:101CD000803B09F486C038F4803A09F466C0883A3B
:101CE00009F47FC0B4C0803C09F4A7C0883C09F463
:101CF000A4C0883B09F48AC0AAC08091D40310C054
:101D00009091F6038091F503981770F5E091F60332
:101D100081E08E0F8093F603F0E0EB52FC4F808160
:101D20008093BB0085EC86C08093F7038EC0E09162
:101D3000F60381E08E0F8093F6038091BB00F0E004
:101D4000EB52FC4F80839091F6038091F5036EC0B7
:101D5000E091F60381E08E0F8093F6038091BB0043
:101D6000F0E0EB52FC4F80838091F80381116DC04D
:101D700081E08093D30384EA61C083E08093F90318
:101D80001092C603CFCF8091C603803208F051C0B5
:101D9000E091C60381E08E0F8093C6038091BB0063
:101DA000F0E0EA55FC4F8083BDCF85EC8093BC000A
:101DB0001092F9038091C603803230F4E091C6039B
:101DC000F0E0EA55FC4F10826091C60370E0E091AC
:101DD000A403F091A50386EA93E009951092C60347
:101DE00036C084E08093F9031092A3031092A203FB
:101DF000E091A003F091A10309958091A2038111C4
:101E000005C081E08093A20310928003E091A303B8
:101E100081E08E0F8093A303F0E0E058FC4F8081B7
:101E20008093BB009091A3038091A203981708F4BC
:101E300079CF85E88093BC000AC085EC8093BC0014
:101E40001092F90304C01092F7030E945E0CFF91F8
:101E5000EF91BF91AF919F918F917F916F915F9122
:101E60004F913F912F910F900FBE0F901F9018959B
:101E7000CF92DF92EF92FF920F931F93CF93DF9356
:101E80006C017A018B01C0E0D0E0CE15DF0589F04E
:101E9000D8016D918D01D601ED91FC910190F081F9
:101EA000E02DC6010995892B11F47E0102C021960F
:101EB000ECCFC701DF91CF911F910F91FF90EF9071
:101EC000DF90CF900895FC01538D448D252F30E095
:101ED000842F90E0821B930B541710F0CF96089537
:101EE00001970895FC01918D828D981761F0828D84
:101EF000DF01A80FB11D5D968C91928D9F5F9F733E
:101F0000928F90E008958FEF9FEF08950E947717CA
:101F10006115710579F0FB0101900020E9F7319717
:101F2000AF01461B570BDC01ED91FC910280F38160
:101F3000E02D099480E090E008954F925F926F92B7
:101F40007F92EF92FF920F931F93CF93DF93CDB7C2
:101F5000DEB7A1970FB6F894DEBF0FBECDBF7C01F0
:101F6000FA01CB0119A2223008F42AE08E010F5D9C
:101F70001F4F422E512C612C712CBF01A3019201E5
:101F80000E944017F901CA01015011096A3014F486
:101F9000605D01C0695CD8016C93232B242B252B39
:101FA00061F7B801C7010E94880FA1960FB6F89497
:101FB000DEBF0FBECDBFDF91CF911F910F91FF907C
:101FC000EF907F906F905F904F9008958DE194E037
:101FD0000E94250321E0892B09F420E0822F089537
:101FE000EF92FF920F931F93CF93DF93EC0181E069
:101FF000888F9B8D8C8D981305C0E889F989808125
:1020000085FD24C0F62E0B8D10E00F5F1F4F0F7360
:102010001127E02E8C8DE8120CC00FB607FCFACF0A
:10202000E889F989808185FFF5CFCE010E94190DDD
:10203000F1CF8B8DFE01E80FF11DE35AFF4FF082C7
:102040000B8FEA89FB898081806207C0EE89FF8956
:102050006083E889F98980818064808381E090E0F1
:10206000DF91CF911F910F91FF90EF900895CF9343
:10207000DF93EC01888D8823C9F0EA89FB89808190
:1020800085FD05C0A889B9898C9186FD0FC00FB662
:1020900007FCF5CF808185FFF2CFA889B9898C91A3
:1020A00085FFEDCFCE010E94190DE7CFDF91CF91D3
:1020B00008951F920F920FB60F9211242F933F9302
:1020C0004F935F936F937F938F939F93AF93BF9340
:1020D000EF93FF938DE194E00E94190DFF91EF9132
:1020E000BF91AF919F918F917F916F915F914F9130
:1020F0003F912F910F900FBE0F901F9018951F9238
:102100000F920FB60F9211242F938F939F93EF93FB
:10211000FF93E0912D04F0912E048081E09133042F
:10212000F091340482FD12C09081809136048F5F5B
:102130008F7320913704821751F0E0913604F0E05C
:10214000E35EFB4F958F8093360401C08081FF9141
:10215000EF919F918F912F910F900FBE0F901F9035
:10216000189520911C049091F404213208F04AC083
:102170008091F9038111FCCF32E03093F90331E013
:102180003093F8033FEF3093F7031092F603209358
:10219000F503ACEFB3E045ED53E0FA013E2F341BFD
:1021A000321718F43D913193F9CF1092D403209156
:1021B000D403990F922B9093D4039091D303913031
:1021C00061F41092D3039091D4039093BB0090914B
:1021D000BC0093FDF8CF95EC01C095EE9093BC0048
:1021E0009091F9039230E1F39091F7039F3F79F0DA
:1021F0008091F703803241F08091F703803331F012
:1022000084E005C081E003C082E001C083E0109259
:10221000FB0310921C041092FA0308959091E704B6
:10222000992339F08EBD00000DB407FEFDCF8EB5A9
:10223000089528E030E040E8E091EA04F091EB04F2
:1022400050819091F104909595239083E091E8045A
:10225000F091E9049091F004542F582319F0508123
:10226000952B03C05081909595239083E091EA04CB
:10227000F091EB0450819091F104952B9083469559
:1022800021503109C9F608953F924F925F926F92A3
:102290007F928F929F92AF92BF92CF92DF92EF92F6
:1022A000FF920F931F93CF93DF9300D000D000D005
:1022B000CDB7DEB72C013B015A014901CA0107968F
:1022C00097FD07969C0193E0359527959A95E1F740
:1022D0003A832983C12CD12CE12CF12C312CC7015C
:1022E000860D971D9C838B83E814F904C4F51E8228
:1022F0001D82ED81FE81EA15FB054CF58D819E81E5
:1023000087709927892B11F0330C0EC0ED81FE8167
:10231000F7FD379683E0F595E7958A95E1F7EC0DA3
:10232000FD1DE854FA4F349037FE0BC098014B81E5
:102330005C816D817E81640D751D86EC94E00E9448
:10234000AC0B8D819E8101969E838D83D2CFFFEF52
:10235000EF1AFF0A29813A81C20ED31EC0CF2696FA
:102360000FB6F894DEBF0FBECDBFDF91CF911F91A6
:102370000F91FF90EF90DF90CF90BF90AF909F9024
:102380008F907F906F905F904F903F900895CF9384
:10239000C82F8091E2048F3F59F1E091EC04F09155
:1023A000ED0480819091F204982B9083E091EE04EB
:1023B000F091EF0420819091F30490959223908303
:1023C000E091EC04F091ED0420819091F20490955D
:1023D000922390838C2F0E940E11E091EC04F091D7
:1023E000ED0490818091F204892B8083CF91089530
:1023F0008091E00491E09093FA038093F4041092AA
:10240000FB0310921C0460E08AEB94E00E94E60C4F
:102410006C2F8AEB94E00E94E60CCF910C94B110E3
:10242000EF92FF920F931F93CF93DF9381E20E946D
:10243000C71180E00E94C7118FE70E94C71182E296
:102440000E94C71180E00E94C71183E00E94C7115B
:102450008091E2048F3F79F1E091EC04F091ED047A
:1024600090818091F204892B8083E091EE04F091B9
:10247000EF0490818091F304892B8083E091EC0438
:10248000F091ED0490818091F204809589238083FE
:10249000C0E0D1E089910E940E1183E0C030D807DE
:1024A000C9F7E091EC04F091ED0490818091F20481
:1024B000892B808330C0F090B8008CE08093B80006
:1024C000C0E0D1E0EE24E3948091E004E092FA03CE
:1024D0008093F4041092FB0310921C0460E48AEBD6
:1024E00094E00E94E60C00E010E0FE01E00FF11F16
:1024F00060818AEB94E00E94E60C0F5F1F4F003171
:10250000110599F70E94B110609683E0C030D8079A
:10251000D9F6F092B800DF91CF911F910F91FF9003
:10252000EF90089580E092E0E0E0F1E0DF019C01AF
:102530001D9221503040E1F7089590E0FC01EC55E8
:10254000FA4F2491FC01E057FA4F8491882399F0C7
:1025500090E0880F991FFC01EA57FA4FA591B491BA
:10256000FC01E458FA4F859194918FB7F894EC915F
:10257000E22BEC938FBF0895CF93DF93CDB7DEB7F7
:10258000A2970FB6F894DEBF0FBECDBF789484B586
:10259000826084BD84B5816084BD85B5826085BD5F
:1025A00085B5816085BD80916E00816080936E00ED
:1025B00010928100809181008260809381008091DF
:1025C0008100816080938100809180008160809390
:1025D00080008091B10084608093B1008091B00050
:1025E00081608093B00080917A00846080937A004B
:1025F00080917A00826080937A0080917A00816075
:1026000080937A0080917A00806880937A0010929B
:10261000C100E0912D04F0912E0492E09083E091AE
:102620002904F0912A041082E0912B04F0912C04EB
:102630008FEC808310923504E0913104F0913204E4
:1026400086E08083E0912F04F091300480818061E6
:102650008083E0912F04F091300480818860808332
:10266000E0912F04F0913004808180688083E091B4
:102670002F04F091300480818F7D80839093E1045A
:102680008CE38093E0048091E2048F3F09F4B6C0AC
:102690008091E4040E949D128091E6040E949D12A4
:1026A0008091E604082E000C990BFC01E057FA4FCC
:1026B000E491F0E0EE0FFF1FE458FA4F25913491BA
:1026C0003093ED042093EC04FC01EC55FA4FE491B7
:1026D000E093F2048091E404082E000C990BFC01B5
:1026E000E057FA4FE491F0E0EE0FFF1FE458FA4F85
:1026F000259134913093EF042093EE04FC01EC55C6
:10270000FA4FE491E093F3048091E70481113CC017
:102710008091E2040E949D128091E3040E949D1228
:102720008091E304082E000C990BFC01E057FA4F4E
:10273000E491F0E0EE0FFF1FE458FA4F2591349139
:102740003093EB042093EA04FC01EC55FA4FE4913A
:10275000E093F1048091E204082E000C990BFC0137
:10276000E057FA4FE491F0E0EE0FFF1FE458FA4F04
:10277000259134913093E9042093E804FC01EC5551
:10278000FA4FE491E093F0048091E704882309F480
:102790005CC01FB7F8948091D203811124C0EAE98C
:1027A000F5E08491EEEAF5E09491E82FF0E0EE0F89
:1027B000FF1FEA57FA4FA591B491EC91E92321F458
:1027C00061E08AE00E943A0D8AE00E949D128CB579
:1027D00080618CBD8CB580648CBD8DE00E949D12A3
:1027E0008BE00E949D128091D2038F5F8093D20371
:1027F0001FBF80E58CBD81E08DBD27C01092D10345
:102800001092D0031092FB0310921C041092F90353
:1028100081E08093F8031092D30361E082E10E948B
:102820003A0D61E083E10E943A0D8091B9008E7FFC
:102830008093B9008091B9008D7F8093B90088E4BE
:102840008093B80085E48093BC008091E50487FD07
:102850001DC00E949D1261E08091E5040E943A0D26
:1028600061E070E080E090E00E94860D60E0809181
:10287000E5040E943A0D6AE070E080E090E00E947A
:10288000860D61E08091E5040E943A0D8EEA0E9477
:10289000C71185ED0E94C71180E80E94C71188EA20
:1028A0000E94C7118FE10E94C71183ED0E94C711DA
:1028B00080E00E94C71180E40E94C7118DE80E9449
:1028C000C71184E10E94C71180E20E94C71180E015
:1028D0000E94C71181EA0E94C71188EC0E94C711AB
:1028E0008AED0E94C71182E00E94C71181E80E9410
:1028F000C7118FE80E94C71189ED0E94C71181EFAF
:102900000E94C7118BED0E94C71180E40E94C7117D
:1029100084EA0E94C71186EA0E94C7118EE20E94D3
:10292000C7118FEA0E94C7110E94101264EF71E074
:1029300080E090E00E94860D0E94921221E030E03B
:102940004AE050E06AE070E086EC94E00E941606EF
:102950000E94101260ED77E080E090E00E94860D0A
:102960000E94921281E08093DA0401E010E010935B
:10297000D9040093D8041093D7040093D6048AE0B6
:1029800090E09093D3048093D2049093D5048093E5
:10299000D40464E673E086EC94E00E94880F6AE653
:1029A00073E086EC94E00E94880F1092D704109296
:1029B000D6041093D9040093D8042AE043E050E0F1
:1029C00060E070E086EC94E00E949D0FE091C60408
:1029D000F091C7040190F081E02D6EE286EC94E066
:1029E00009952AE041E050E060E070E086EC94E078
:1029F0000E949D0F2AE044E050E060E070E086EC29
:102A000094E00E949D0F6AE673E086EC94E00E94D9
:102A1000880F82E08093DA041093D9040093D804DD
:102A20001093D7040093D6046DE673E086EC94E02F
:102A30000E94880F20E14FEE5EEB6DEA7EED86ECA2
:102A400094E00E949D0F6AE673E086EC94E00E9499
:102A5000880F0E94101268E873E180E090E00E9405
:102A6000860D0E94921220E130E040E150E060E1EA
:102A700070E08EE190E00E9444110E94101261E02B
:102A800070E080E090E00E94860D87EA0E94C71106
:102A900068EE73E080E090E00E94860D86EA0E9476
:102AA000C71168EE73E080E090E00E94860D0E94FE
:102AB00092124E018FE1880E911CFE0132966F0139
:102AC000CE0101967C0195E0492E512C612C712C90
:102AD0002091CE043091CF04032E000C440B550BF3
:102AE000211531054105510571F02F8F38A349A3F8
:102AF0005AA30E9400172F8D38A149A15AA10E9404
:102B00000E179B01AC01F7012083F60110820E9491
:102B10000017A30192010E940E1711E0160FF70192
:102B2000128360E773E08DE194E00E94880FF70163
:102B3000408150E060E070E02AE08DE194E00E9486
:102B40009D0F64E773E08DE194E00E94880FF60129
:102B5000408150E060E070E02AE08DE194E00E9466
:102B60009D0F69E773E08DE194E00E94880F412F8B
:102B700050E060E070E02AE08DE194E00E949D0F5B
:102B80006AE673E08DE194E00E94880FF3E0EF0EB7
:102B9000F11C83E0C80ED11CE814F90409F098CFA9
:102BA00085E0482E512C612C712CFE0131967F015D
:102BB000F701618170E0808101E010E020E130E008
:102BC00040E150E090E00E944411F3E0EF0EF11C70
:102BD000E814F90469F70E94101268EC70E080E0D4
:102BE00090E00E94860DCE0103965C01FE013196B5
:102BF0006F0101977C01F701608170E0F60180812F
:102C000000E010E020E130E040E150E090E00E9480
:102C10004411F5019081F7018081890F808390E054
:102C20002091D0043091D1042817390744F5209120
:102C3000CE043091CF04032E000C440B550B21150C
:102C400031054105510571F02F8F38A349A35AA3CF
:102C50000E9400172F8D38A149A15AA10E940E177A
:102C60009B01AC01F6012083F70110820E9400173E
:102C7000A30192010E940E176F5FF5016083F3E0DC
:102C8000EF0EF11C83E0C80ED11C93E0A90EB11C1D
:102C9000C814D90409F0AFCF88CFEDE1F4E0138276
:102CA000128288EE93E0A0E0B0E084839583A6834F
:102CB000B78328E133E03183208325EC30E035878A
:102CC000248724EC30E03787268720EC30E0318BF6
:102CD000208B21EC30E0338B228B22EC30E0358BE3
:102CE000248B26EC30E0378B268B118E128E138EC0
:102CF000148EEAEBF4E01382128284839583A68318
:102D0000B7838AE293E091838083E6ECF4E0138258
:102D1000128220E830E03583248380E290E09783BC
:102D200086833187208793878287158A1586148644
:102D30001786168681E0848B2FEF3FEF338B228B33
:102D4000318B208B868B178A118E108E8CE393E04B
:102D5000918380838FEF848F80A3868F858F84E01B
:102D6000878F08958F929F92AF92BF92CF92DF92FA
:102D7000EF92FF92CF93DF93EC01688179818A8192
:102D80009B81611571058105910521F464E279ED5E
:102D90008BE597E02DE133EF41E050E00E940E1704
:102DA00049015A019B01AC01A7EAB1E40E942D1729
:102DB0006B017C01ACEEB4EFA50194010E943B17BE
:102DC000DC01CB018C0D9D1DAE1DBF1DB7FF03C0E7
:102DD0000197A109B04888839983AA83BB83BC016A
:102DE000CD019F77DF91CF91FF90EF90DF90CF9053
:102DF000BF90AF909F908F9008950E94B216089553
:102E000080E093E00E94B2160895609300037093EF
:102E1000010380930203909303030895052E97FB0B
:102E20001EF400940E94251757FD07D00E944017FA
:102E300007FC03D04EF40C9425175095409530951F
:102E400021953F4F4F4F5F4F089590958095709516
:102E500061957F4F8F4F9F4F08950E946217A59FE6
:102E6000900DB49F900DA49F800D911D1124089585
:102E7000B7FF0C942D170E942D17821B930B0895FA
:102E8000A1E21A2EAA1BBB1BFD010DC0AA1FBB1F6E
:102E9000EE1FFF1FA217B307E407F50720F0A21BE0
:102EA000B30BE40BF50B661F771F881F991F1A944D
:102EB00069F760957095809590959B01AC01BD0177
:102EC000CF010895A29FB001B39FC001A39F700DD1
:102ED000811D1124911DB29F700D811D1124911D22
:102EE0000895EE0FFF1F0590F491E02D099481E005
:0C2EF00090E0F8940C947C17F894FFCF4D
:102EFC0000000000000000000000000000000000C6
:102F0C0000000000000000000000000000000000B5
:102F1C0000000000000000000000000000000000A5
:102F2C000000000000000000000000000000008015
:102F3C008080000000000000000000000000000085
:102F4C00008080C0C00000000000000000000000F5
:102F5C000000000000000000000000000000000065
:102F6C000000000000000000000000000000000055
:102F7C000000000000000000000000000000000045
:102F8C000000000080C0E0F0F8FCF8E00000000059
:102F9C0000000000000000000000000000808080A5
:102FAC00808000808000000000808080808000FF96
:102FBC00FFFF000000008080808000008080000007
:102FCC0080FFFF8080008080008080808000808077
:102FDC000000000000808000008C8E84000080F8CF
:102FEC00F8F8800000000000000000000000000065
:102FFC00F0F0F0F0F0F0F0F0F0F0F0F0E0E0C08085
:10300C0000E0FCFEFFFFFF7FFFFFFFFFFF00000063
:10301C000000000000000000000000FEFFC70101DE
:10302C00010183FFFF00007CFEC70101010183FF4A
:10303C00FFFF0038FEC78301010183C7FFFF0000BB
:10304C0001FFFF010100FFFF0701010100007FFFED
:10305C0080000000FFFF7F0000FFFFFF000001FF6A
:10306C00FFFF010000000000000000000000000055
:10307C00030F3F7F7FFFFFFFFFFFFFFFE7C7C78FF8
:10308C008F9FBFFFFFC3C0F0FFFFFFFFFFFCFCFCE7
:10309C00FCFCFCFCFCF8F8F0F0E0C00001030303BE
:1030AC0003030103030000000001030303030101F8
:1030BC0003010000000103030303010103030000EB
:1030CC0000030300000003030000000000000001E7
:1030DC0003030303030100000001030100000003CC
:1030EC0003010000000000000000000000000000D0
:1030FC0001000000000103070F1F3F7F0080C0E0AC
:10310C00F0F8FCFE00000000F00F380F630F3710D2
:10311C002503720F170300000000E60CB60C160D09
:10312C00900CAE0C9F0C910C00000000E008380FC6
:10313C00160D150D1606B30BAC0B840BA00B940BD4
:10314C00B40B830BB506B4066003BA04AA0A8C0A46
:10315C00150AB609437A659C21000D0A00307800E7
:10316C00783A200020793A20002064793A20000037
:107800000C94343C0C94513C0C94513C0C94513CE1
:107810000C94513C0C94513C0C94513C0C94513CB4
:107820000C94513C0C94513C0C94513C0C94513CA4
:107830000C94513C0C94513C0C94513C0C94513C94
:107840000C94513C0C94513C0C94513C0C94513C84
:107850000C94513C0C94513C0C94513C0C94513C74
:107860000C94513C0C94513C11241FBECFEFD8E036
:10787000DEBFCDBF11E0A0E0B1E0ECE9FFE702C060
:1078800005900D92A230B107D9F712E0A2E0B1E065
:1078900001C01D92AD30B107E1F70E942D3D0C945F
:1078A000CC3F0C94003C982F959595959595959582
:1078B000905D8F708A307CF0282F295A8091C0000B
:1078C00085FFFCCF9093C6008091C00085FFFCCF60
:1078D0002093C6000895282F205DF0CF982F809127
:1078E000C00085FFFCCF9093C6000895EF92FF92F1
:1078F0000F931F93EE24FF2487018091C00087FD22
:1079000017C00894E11CF11C011D111D81E4E8164B
:1079100082E4F8068FE0080780E0180770F3E09132
:107920000401F091050109958091C00087FFE9CF1E
:107930008091C6001F910F91FF90EF9008950E94D3
:10794000763C982F8091C00085FFFCCF9093C600B5
:1079500091362CF490330CF09053892F089597555D
:10796000892F08951F930E949F3C182F0E949F3CCF
:107970001295107F810F1F9108951F93182F882350
:1079800021F00E94763C1150E1F71F9108951F935A
:10799000182F0E94763C803249F0809103018F5F5E
:1079A000809303018530C1F01F9108958091C0003C
:1079B00085FFFCCF84E18093C6008091C00085FFE5
:1079C000FCCF1093C6008091C00085FFFCCF80E102
:1079D0008093C6001F910895E0910401F091050184
:1079E00009951F9108950E94763C803241F0809164
:1079F00003018F5F80930301853081F008958091AA
:107A0000C00085FFFCCF84E18093C6008091C00058
:107A100085FFFCCF80E18093C6000895E0910401CA
:107A2000F09105010995089540E951E08823A1F0FE
:107A30002D9A28EE33E0FA013197F1F721503040CA
:107A4000D1F72D9828EE33E0FA013197F1F7215064
:107A50003040D1F7815061F708953F924F925F9285
:107A60006F927F928F929F92AF92BF92CF92DF924E
:107A7000EF92FF920F931F93CF93DF93000080E16B
:107A80008093C4001092C50088E18093C10086E015
:107A90008093C2005098589A259A81E00E94143D24
:107AA00024E1F22E9EE1E92E85E9D82E0FE0C02ECA
:107AB00010E1B12EAA24A394B1E49B2EA6E58A2E50
:107AC000F2E57F2EE0E26E2E79E4572E63E5462E36
:107AD00050E5352E0E94763C8033B1F18133B9F107
:107AE000803409F46FC0813409F476C0823409F41B
:107AF00085C0853409F488C0803531F1823521F1A3
:107B0000813511F1853509F485C0863509F48DC0BC
:107B1000843609F496C0843709F403C1853709F423
:107B200072C1863709F466C0809103018F5F80932C
:107B30000301853079F6E0910401F0910501099582
:107B40000E94763C803351F60E94F33CC3CF0E94E2
:107B5000763C803249F78091C00085FFFCCFF092DF
:107B6000C6008091C00085FFFCCF9092C600809136
:107B7000C00085FFFCCF8092C6008091C00085FFC9
:107B8000FCCF7092C6008091C00085FFFCCF609250
:107B9000C6008091C00085FFFCCF5092C600809146
:107BA000C00085FFFCCF4092C6008091C00085FFD9
:107BB000FCCF3092C6008091C00085FFFCCFB09210
:107BC000C60088CF0E94763C863808F4BDCF0E945C
:107BD000763C0E94F33C7ECF0E94763C803809F4CC
:107BE0009CC0813809F40BC1823809F43CC1883942
:107BF00009F48FC080E00E94C73C6CCF84E10E94F2
:107C0000BD3C0E94F33C66CF85E00E94BD3C0E94D3
:107C1000F33C60CF0E94763C809306010E94763C44
:107C2000809307010E94F33C55CF0E94763C80333D
:107C300009F41DC183E00E94BD3C80E00E94C73C66
:107C400049CF0E94763C809309020E94763C809343
:107C5000080280910C028E7F80930C020E94763C79
:107C6000853409F415C18091080290910902892B8D
:107C700089F000E010E00E94763CF801E85FFE4FDA
:107C800080830F5F1F4F80910802909109020817AF
:107C9000190788F30E94763C803209F045CF809125
:107CA0000C0280FF01C16091060170910701660F0F
:107CB000771F7093070160930601A0910802B091AD
:107CC00009021097C9F0E8E0F1E09B01AD014E0F09
:107CD0005F1FF999FECF32BD21BD819180BDFA9A17
:107CE000F99A2F5F3F4FE417F50799F76A0F7B1F4B
:107CF00070930701609306018091C00085FFFCCF5F
:107D0000F092C6008091C00085FFFCCFB092C60003
:107D1000E1CE83E00E94C73CDDCE82E00E94C73CFA
:107D2000D9CE0E94763C809309020E94763C8093D3
:107D300008028091060190910701880F991F909386
:107D40000701809306010E94763C853409F4A6C0A1
:107D500080910C028E7F80930C020E94763C8032D0
:107D600009F0B8CE8091C00085FFFCCFF092C6002C
:107D7000609108027091090261157105B9F140E046
:107D800050E080910C02A82FA170B82FB27011C0E2
:107D9000BB2309F45CC0E0910601F0910701319624
:107DA000F0930701E09306014F5F5F4F46175707B7
:107DB000E8F4AA2369F3F999FECF209106013091E6
:107DC000070132BD21BDF89A90B58091C00085FFB2
:107DD000FCCF9093C6002F5F3F4F30930701209355
:107DE00006014F5F5F4F4617570718F38091C00099
:107DF00085FDE5CE8091C00085FFF8CFE0CE81E023
:107E00000E94C73C67CE0E94763C803209F08CCE3F
:107E10008091C00085FFFCCFF092C6008091C00029
:107E200085FFFCCFE092C6008091C00085FFFCCFAB
:107E3000D092C6008091C00085FFFCCFC092C600E2
:107E40008091C00085FFFCCFB092C60043CEE09188
:107E50000601F091070194918091C00085FFFCCF4D
:107E60009093C6009CCF80E10E94C73C33CE0E9415
:107E7000763C0E94763C182F0E94763C112309F430
:107E800083C0113009F484C08FE00E94C73C22CE29
:107E900080910C02816080930C02E5CE80910C02EF
:107EA000816080930C0259CF809107018823880F4D
:107EB000880B8A2180930B02809106019091070123
:107EC000880F991F90930701809306018091080203
:107ED00080FF09C080910802909109020196909359
:107EE000090280930802F894F999FECF1127E091D6
:107EF0000601F0910701C8E0D1E08091080290915D
:107F00000902103091F40091570001700130D9F34B
:107F100003E000935700E89500915700017001308D
:107F2000D9F301E100935700E89509901990009169
:107F3000570001700130D9F301E000935700E89534
:107F40001395103498F011270091570001700130FB
:107F5000D9F305E000935700E895009157000170B0
:107F60000130D9F301E100935700E895329602976A
:107F700009F0C7CF103011F00296E5CF112480919F
:107F8000C00085FFB9CEBCCE8EE10E94C73CA2CD19
:0C7F900085E90E94C73C9ECDF894FFCF0D
:027F9C00800063
:040000030000780081
:00000001FF
